{
  "address": "0x9718f3D094420F7bbD70ADee5ACB87E576c4c072",
  "abi": [
    {
      "inputs": [
        {
          "internalType": "address",
          "name": "_flareContractRegistry",
          "type": "address"
        },
        {
          "internalType": "string",
          "name": "_symbolCollateral",
          "type": "string"
        },
        {
          "internalType": "uint256",
          "name": "_collateralRatio",
          "type": "uint256"
        },
        {
          "internalType": "uint256",
          "name": "_lockingPeriod",
          "type": "uint256"
        },
        {
          "internalType": "uint256",
          "name": "_fee",
          "type": "uint256"
        }
      ],
      "stateMutability": "nonpayable",
      "type": "constructor"
    },
    {
      "anonymous": false,
      "inputs": [
        {
          "indexed": true,
          "internalType": "address",
          "name": "owner",
          "type": "address"
        },
        {
          "indexed": true,
          "internalType": "address",
          "name": "approved",
          "type": "address"
        },
        {
          "indexed": true,
          "internalType": "uint256",
          "name": "tokenId",
          "type": "uint256"
        }
      ],
      "name": "Approval",
      "type": "event"
    },
    {
      "anonymous": false,
      "inputs": [
        {
          "indexed": true,
          "internalType": "address",
          "name": "owner",
          "type": "address"
        },
        {
          "indexed": true,
          "internalType": "address",
          "name": "operator",
          "type": "address"
        },
        {
          "indexed": false,
          "internalType": "bool",
          "name": "approved",
          "type": "bool"
        }
      ],
      "name": "ApprovalForAll",
      "type": "event"
    },
    {
      "anonymous": false,
      "inputs": [
        {
          "indexed": true,
          "internalType": "address",
          "name": "from",
          "type": "address"
        },
        {
          "indexed": true,
          "internalType": "address",
          "name": "to",
          "type": "address"
        },
        {
          "indexed": true,
          "internalType": "uint256",
          "name": "tokenId",
          "type": "uint256"
        }
      ],
      "name": "Transfer",
      "type": "event"
    },
    {
      "inputs": [
        {
          "internalType": "address",
          "name": "to",
          "type": "address"
        },
        {
          "internalType": "uint256",
          "name": "tokenId",
          "type": "uint256"
        }
      ],
      "name": "approve",
      "outputs": [],
      "stateMutability": "nonpayable",
      "type": "function"
    },
    {
      "inputs": [
        {
          "internalType": "address",
          "name": "owner",
          "type": "address"
        }
      ],
      "name": "balanceOf",
      "outputs": [
        {
          "internalType": "uint256",
          "name": "balance",
          "type": "uint256"
        }
      ],
      "stateMutability": "view",
      "type": "function"
    },
    {
      "inputs": [
        {
          "internalType": "address",
          "name": "",
          "type": "address"
        }
      ],
      "name": "balances",
      "outputs": [
        {
          "internalType": "uint256",
          "name": "",
          "type": "uint256"
        }
      ],
      "stateMutability": "view",
      "type": "function"
    },
    {
      "inputs": [],
      "name": "collateralRatio",
      "outputs": [
        {
          "internalType": "uint256",
          "name": "",
          "type": "uint256"
        }
      ],
      "stateMutability": "view",
      "type": "function"
    },
    {
      "inputs": [],
      "name": "fee",
      "outputs": [
        {
          "internalType": "uint256",
          "name": "",
          "type": "uint256"
        }
      ],
      "stateMutability": "view",
      "type": "function"
    },
    {
      "inputs": [],
      "name": "flareContractRegistry",
      "outputs": [
        {
          "internalType": "address",
          "name": "",
          "type": "address"
        }
      ],
      "stateMutability": "view",
      "type": "function"
    },
    {
      "inputs": [
        {
          "internalType": "uint256",
          "name": "tokenId",
          "type": "uint256"
        }
      ],
      "name": "getApproved",
      "outputs": [
        {
          "internalType": "address",
          "name": "operator",
          "type": "address"
        }
      ],
      "stateMutability": "view",
      "type": "function"
    },
    {
      "inputs": [
        {
          "internalType": "uint256",
          "name": "vaultId",
          "type": "uint256"
        }
      ],
      "name": "getVaultOverview",
      "outputs": [
        {
          "internalType": "address",
          "name": "",
          "type": "address"
        },
        {
          "internalType": "uint256",
          "name": "",
          "type": "uint256"
        },
        {
          "internalType": "uint256",
          "name": "",
          "type": "uint256"
        },
        {
          "internalType": "uint256",
          "name": "",
          "type": "uint256"
        },
        {
          "internalType": "uint256",
          "name": "",
          "type": "uint256"
        },
        {
          "internalType": "uint256",
          "name": "",
          "type": "uint256"
        },
        {
          "internalType": "uint256",
          "name": "",
          "type": "uint256"
        }
      ],
      "stateMutability": "view",
      "type": "function"
    },
    {
      "inputs": [
        {
          "internalType": "address",
          "name": "owner",
          "type": "address"
        },
        {
          "internalType": "address",
          "name": "operator",
          "type": "address"
        }
      ],
      "name": "isApprovedForAll",
      "outputs": [
        {
          "internalType": "bool",
          "name": "",
          "type": "bool"
        }
      ],
      "stateMutability": "view",
      "type": "function"
    },
    {
      "inputs": [],
      "name": "lockingPeriod",
      "outputs": [
        {
          "internalType": "uint256",
          "name": "",
          "type": "uint256"
        }
      ],
      "stateMutability": "view",
      "type": "function"
    },
    {
      "inputs": [
        {
          "internalType": "string",
          "name": "_symbolSynthetic",
          "type": "string"
        },
        {
          "internalType": "uint256",
          "name": "_amountCollateral",
          "type": "uint256"
        },
        {
          "internalType": "uint256",
          "name": "vaultId",
          "type": "uint256"
        }
      ],
      "name": "openVault",
      "outputs": [],
      "stateMutability": "payable",
      "type": "function"
    },
    {
      "inputs": [],
      "name": "owner",
      "outputs": [
        {
          "internalType": "address",
          "name": "",
          "type": "address"
        }
      ],
      "stateMutability": "view",
      "type": "function"
    },
    {
      "inputs": [
        {
          "internalType": "uint256",
          "name": "tokenId",
          "type": "uint256"
        }
      ],
      "name": "ownerOf",
      "outputs": [
        {
          "internalType": "address",
          "name": "owner",
          "type": "address"
        }
      ],
      "stateMutability": "view",
      "type": "function"
    },
    {
      "inputs": [
        {
          "internalType": "uint256",
          "name": "",
          "type": "uint256"
        }
      ],
      "name": "owners",
      "outputs": [
        {
          "internalType": "address",
          "name": "",
          "type": "address"
        }
      ],
      "stateMutability": "view",
      "type": "function"
    },
    {
      "inputs": [
        {
          "internalType": "address",
          "name": "from",
          "type": "address"
        },
        {
          "internalType": "address",
          "name": "to",
          "type": "address"
        },
        {
          "internalType": "uint256",
          "name": "tokenId",
          "type": "uint256"
        }
      ],
      "name": "safeTransferFrom",
      "outputs": [],
      "stateMutability": "nonpayable",
      "type": "function"
    },
    {
      "inputs": [
        {
          "internalType": "address",
          "name": "from",
          "type": "address"
        },
        {
          "internalType": "address",
          "name": "to",
          "type": "address"
        },
        {
          "internalType": "uint256",
          "name": "tokenId",
          "type": "uint256"
        },
        {
          "internalType": "bytes",
          "name": "data",
          "type": "bytes"
        }
      ],
      "name": "safeTransferFrom",
      "outputs": [],
      "stateMutability": "nonpayable",
      "type": "function"
    },
    {
      "inputs": [
        {
          "internalType": "address",
          "name": "operator",
          "type": "address"
        },
        {
          "internalType": "bool",
          "name": "_approved",
          "type": "bool"
        }
      ],
      "name": "setApprovalForAll",
      "outputs": [],
      "stateMutability": "nonpayable",
      "type": "function"
    },
    {
      "inputs": [
        {
          "internalType": "bytes4",
          "name": "interfaceId",
          "type": "bytes4"
        }
      ],
      "name": "supportsInterface",
      "outputs": [
        {
          "internalType": "bool",
          "name": "",
          "type": "bool"
        }
      ],
      "stateMutability": "view",
      "type": "function"
    },
    {
      "inputs": [],
      "name": "symbolCollateral",
      "outputs": [
        {
          "internalType": "string",
          "name": "",
          "type": "string"
        }
      ],
      "stateMutability": "view",
      "type": "function"
    },
    {
      "inputs": [
        {
          "internalType": "address",
          "name": "from",
          "type": "address"
        },
        {
          "internalType": "address",
          "name": "to",
          "type": "address"
        },
        {
          "internalType": "uint256",
          "name": "tokenId",
          "type": "uint256"
        }
      ],
      "name": "transferFrom",
      "outputs": [],
      "stateMutability": "nonpayable",
      "type": "function"
    },
    {
      "inputs": [
        {
          "internalType": "uint256",
          "name": "",
          "type": "uint256"
        }
      ],
      "name": "vaults",
      "outputs": [
        {
          "internalType": "address",
          "name": "",
          "type": "address"
        }
      ],
      "stateMutability": "view",
      "type": "function"
    },
    {
      "inputs": [
        {
          "internalType": "address",
          "name": "",
          "type": "address"
        },
        {
          "internalType": "uint256",
          "name": "",
          "type": "uint256"
        }
      ],
      "name": "vaultsByOwner",
      "outputs": [
        {
          "internalType": "uint256",
          "name": "",
          "type": "uint256"
        }
      ],
      "stateMutability": "view",
      "type": "function"
    }
  ],
  "transactionHash": "0xdd15eff29d6cf781d740ea53744dd39a22ec1a8cafbe06fa2f3640bbc792e126",
  "args": [
    "0xaD67FE66660Fb8dFE9d6b1b4240d8650e30F6019",
    "C2FLR",
    60,
    0,
    2
  ],
  "numDeployments": 1,
  "solcInputHash": "7dcc9083185cea827e77ddb8bff8e99e",
  "bytecode": "0x60806040523480156200001157600080fd5b50604051620029fd380380620029fd83398101604081905262000034916200009a565b600480546001600160a01b0319166001600160a01b03871617905560056200005d85826200023a565b506006929092556007556009555050600880546001600160a01b0319163317905562000306565b634e487b7160e01b600052604160045260246000fd5b600080600080600060a08688031215620000b357600080fd5b85516001600160a01b0381168114620000cb57600080fd5b602087810151919650906001600160401b0380821115620000eb57600080fd5b818901915089601f8301126200010057600080fd5b81518181111562000115576200011562000084565b604051601f8201601f19908116603f0116810190838211818310171562000140576200014062000084565b816040528281528c868487010111156200015957600080fd5b600093505b828410156200017d57848401860151818501870152928501926200015e565b6000928101909501919091525050506040870151606088015160809098015196999198509695945092505050565b600181811c90821680620001c057607f821691505b602082108103620001e157634e487b7160e01b600052602260045260246000fd5b50919050565b601f8211156200023557600081815260208120601f850160051c81016020861015620002105750805b601f850160051c820191505b8181101562000231578281556001016200021c565b5050505b505050565b81516001600160401b0381111562000256576200025662000084565b6200026e81620002678454620001ab565b84620001e7565b602080601f831160018114620002a657600084156200028d5750858301515b600019600386901b1c1916600185901b17855562000231565b600085815260208120601f198616915b82811015620002d757888601518255948401946001909101908401620002b6565b5085821015620002f65787850151600019600388901b60f8161c191681555b5050505050600190811b01905550565b6126e780620003166000396000f3fe6080604052600436106200014f5760003560e01c8063550066d511620000b9578063a22cb4651162000078578063a22cb4651462000442578063b4eae1cb1462000461578063b88d4fde1462000479578063ddca3f43146200049e578063e985e9c514620004b6578063ef9b86f814620004dd57600080fd5b8063550066d5146200035a5780636352211e146200037257806370a0823114620003ac5780638c64ea4a14620003e65780638da5cb5b146200042057600080fd5b80631cde6fbd11620001125780631cde6fbd146200026157806323b872dd146200028857806327e235e314620002ad578063419025be14620002de57806342842e0e146200028857806342d2f62c146200034357600080fd5b806301ffc9a71462000154578063025e7c27146200018e578063081812fc14620001e1578063095ea7b314620002065780631a0121db146200022d575b600080fd5b3480156200016157600080fd5b50620001796200017336600462000f1b565b620004ff565b60405190151581526020015b60405180910390f35b3480156200019b57600080fd5b50620001c8620001ad36600462000f4e565b6001602052600090815260409020546001600160a01b031681565b6040516001600160a01b03909116815260200162000185565b348015620001ee57600080fd5b50620001c86200020036600462000f4e565b50600090565b3480156200021357600080fd5b506200022b6200022536600462000f85565b62000537565b005b3480156200023a57600080fd5b50620002526200024c36600462000f85565b62000576565b60405190815260200162000185565b3480156200026e57600080fd5b5062000279620005a8565b60405162000185919062000ffa565b3480156200029557600080fd5b506200022b620002a73660046200100f565b6200063e565b348015620002ba57600080fd5b5062000252620002cc36600462001050565b60006020819052908152604090205481565b348015620002eb57600080fd5b5062000303620002fd36600462000f4e565b62000650565b604080516001600160a01b0390981688526020880196909652948601939093526060850191909152608084015260a083015260c082015260e00162000185565b6200022b6200035436600462001084565b6200093a565b3480156200036757600080fd5b506200025260075481565b3480156200037f57600080fd5b50620001c86200039136600462000f4e565b6000908152600160205260409020546001600160a01b031690565b348015620003b957600080fd5b5062000252620003cb36600462001050565b6001600160a01b031660009081526020819052604090205490565b348015620003f357600080fd5b50620001c86200040536600462000f4e565b6002602052600090815260409020546001600160a01b031681565b3480156200042d57600080fd5b50600854620001c8906001600160a01b031681565b3480156200044f57600080fd5b506200022b6200022536600462001152565b3480156200046e57600080fd5b506200025260065481565b3480156200048657600080fd5b506200022b6200049836600462001192565b62000b44565b348015620004ab57600080fd5b506200025260095481565b348015620004c357600080fd5b5062000179620004d536600462001236565b600092915050565b348015620004ea57600080fd5b50600454620001c8906001600160a01b031681565b60006380ac58cd60e01b6001600160e01b031983161480620005315750635b5e139f60e01b6001600160e01b03198316145b92915050565b60405162461bcd60e51b815260206004820152600f60248201526e139bdd081a5b5c1b195b595b9d1959608a1b60448201526064015b60405180910390fd5b600360205281600052604060002081815481106200059357600080fd5b90600052602060002001600091509150505481565b60058054620005b7906200126e565b80601f0160208091040260200160405190810160405280929190818152602001828054620005e5906200126e565b8015620006365780601f106200060a5761010080835404028352916020019162000636565b820191906000526020600020905b8154815290600101906020018083116200061857829003601f168201915b505050505081565b6200064b83838362000b58565b505050565b60008181526002602090815260408083205460019092528220548291829182918291829182916001600160a01b039182169116620006a85760008060008060008060009750975097509750975097509750506200092f565b6000898152600160209081526040918290205482516313f3bd2b60e11b815292516001600160a01b0391821693918516926327e77a5692600480820193918290030181865afa15801562000700573d6000803e3d6000fd5b505050506040513d601f19601f82011682018060405250810190620007269190620012aa565b826001600160a01b03166324cfbd966040518163ffffffff1660e01b8152600401602060405180830381865afa15801562000765573d6000803e3d6000fd5b505050506040513d601f19601f820116820180604052508101906200078b9190620012aa565b836001600160a01b03166314d8a4ad6040518163ffffffff1660e01b8152600401602060405180830381865afa158015620007ca573d6000803e3d6000fd5b505050506040513d601f19601f82011682018060405250810190620007f09190620012aa565b846001600160a01b031663b4eae1cb6040518163ffffffff1660e01b8152600401602060405180830381865afa1580156200082f573d6000803e3d6000fd5b505050506040513d601f19601f82011682018060405250810190620008559190620012aa565b856001600160a01b031663550066d56040518163ffffffff1660e01b8152600401602060405180830381865afa15801562000894573d6000803e3d6000fd5b505050506040513d601f19601f82011682018060405250810190620008ba9190620012aa565b866001600160a01b031663bd885f4f6040518163ffffffff1660e01b8152600401602060405180830381865afa158015620008f9573d6000803e3d6000fd5b505050506040513d601f19601f820116820180604052508101906200091f9190620012aa565b9750975097509750975097509750505b919395979092949650565b6000818152600160205260409020546001600160a01b031615620009985760405162461bcd60e51b81526020600482015260146024820152735661756c7420616c72656164792065786973747360601b60448201526064016200056d565b81341015620009ea5760405162461bcd60e51b815260206004820152601760248201527f496e73756666696369656e7420636f6c6c61746572616c00000000000000000060448201526064016200056d565b606460095483620009fc9190620012da565b62000a089190620012f4565b62000a14908362001317565b341462000a575760405162461bcd60e51b815260206004820152601060248201526f496e73756666696369656e742066656560801b60448201526064016200056d565b600082600460009054906101000a90046001600160a01b03168560056006548760075460405162000a889062000ea1565b62000a99969594939291906200132d565b6040518091039082f090508015801562000ab7573d6000803e3d6000fd5b50336000908152602081905260408120805492935060019290919062000adf90849062001317565b909155505060008281526001602081815260408084208054336001600160a01b031991821681179092556002845282862080549091166001600160a01b0397909716969096179095559383526003815292822080549182018155825291902001555050565b62000b5185858562000b58565b5050505050565b6001600160a01b03821662000ba25760405162461bcd60e51b815260206004820152600f60248201526e496e76616c6964206164647265737360881b60448201526064016200056d565b6000818152600160205260409020546001600160a01b0384811691161462000bfd5760405162461bcd60e51b815260206004820152600d60248201526c2737ba103a34329037bbb732b960991b60448201526064016200056d565b6001600160a01b03831660009081526020819052604090205462000c595760405162461bcd60e51b81526020600482015260126024820152714e6f7420656e6f7567682062616c616e636560701b60448201526064016200056d565b6001600160a01b038316600090815260208190526040812080546001929062000c849084906200141e565b90915550506001600160a01b038216600090815260208190526040812080546001929062000cb490849062001317565b9091555050600081815260016020908152604080832080546001600160a01b0319166001600160a01b038781169190911790915560029092529091205416156200064b57600081815260026020526040908190205490516313af403560e01b81526001600160a01b038481166004830152909116906313af403590602401600060405180830381600087803b15801562000d4d57600080fd5b505af115801562000d62573d6000803e3d6000fd5b5050506001600160a01b038416600090815260036020526040812091505b815481101562000e48578282828154811062000da05762000da062001434565b90600052602060002001540362000e33578154829062000dc3906001906200141e565b8154811062000dd65762000dd662001434565b906000526020600020015482828154811062000df65762000df662001434565b90600052602060002001819055508180548062000e175762000e176200144a565b6001900381819060005260206000200160009055905562000e48565b8062000e3f8162001460565b91505062000d80565b506001600160a01b0384166000908152600360205260409020815462000e719190839062000eaf565b50506001600160a01b03919091166000908152600360209081526040822080546001810182559083529120015550565b611235806200147d83390190565b82805482825590600052602060002090810192821562000ef25760005260206000209182015b8281111562000ef257825482559160010191906001019062000ed5565b5062000f0092915062000f04565b5090565b5b8082111562000f00576000815560010162000f05565b60006020828403121562000f2e57600080fd5b81356001600160e01b03198116811462000f4757600080fd5b9392505050565b60006020828403121562000f6157600080fd5b5035919050565b80356001600160a01b038116811462000f8057600080fd5b919050565b6000806040838503121562000f9957600080fd5b62000fa48362000f68565b946020939093013593505050565b6000815180845260005b8181101562000fda5760208185018101518683018201520162000fbc565b506000602082860101526020601f19601f83011685010191505092915050565b60208152600062000f47602083018462000fb2565b6000806000606084860312156200102557600080fd5b620010308462000f68565b9250620010406020850162000f68565b9150604084013590509250925092565b6000602082840312156200106357600080fd5b62000f478262000f68565b634e487b7160e01b600052604160045260246000fd5b6000806000606084860312156200109a57600080fd5b833567ffffffffffffffff80821115620010b357600080fd5b818601915086601f830112620010c857600080fd5b813581811115620010dd57620010dd6200106e565b604051601f8201601f19908116603f011681019083821181831017156200110857620011086200106e565b816040528281528960208487010111156200112257600080fd5b82602086016020830137600060208483010152809750505050505060208401359150604084013590509250925092565b600080604083850312156200116657600080fd5b620011718362000f68565b9150602083013580151581146200118757600080fd5b809150509250929050565b600080600080600060808688031215620011ab57600080fd5b620011b68662000f68565b9450620011c66020870162000f68565b935060408601359250606086013567ffffffffffffffff80821115620011eb57600080fd5b818801915088601f8301126200120057600080fd5b8135818111156200121057600080fd5b8960208285010111156200122357600080fd5b9699959850939650602001949392505050565b600080604083850312156200124a57600080fd5b620012558362000f68565b9150620012656020840162000f68565b90509250929050565b600181811c908216806200128357607f821691505b602082108103620012a457634e487b7160e01b600052602260045260246000fd5b50919050565b600060208284031215620012bd57600080fd5b5051919050565b634e487b7160e01b600052601160045260246000fd5b8082028115828204841417620005315762000531620012c4565b6000826200131257634e487b7160e01b600052601260045260246000fd5b500490565b80820180821115620005315762000531620012c4565b6001600160a01b038716815260c06020808301829052600091620013549084018962000fb2565b83810360408501528754600090600181811c90808316806200137757607f831692505b86831081036200139557634e487b7160e01b85526022600452602485fd5b828652602086019550808015620013b55760018114620013cc57620013f9565b60ff198516875283151560051b87019550620013f9565b60008e81526020902060005b85811015620013f357815489820152908401908901620013d8565b88019650505b50505050506060850197909752505050608081019290925260a0909101529392505050565b81810381811115620005315762000531620012c4565b634e487b7160e01b600052603260045260246000fd5b634e487b7160e01b600052603160045260246000fd5b600060018201620014755762001475620012c4565b506001019056fe60c06040526005608090815264232629191960d91b60a05260089062000026908262000440565b50600980546001600160a01b03191673eeeeeeeeeeeeeeeeeeeeeeeeeeeeeeeeeeeeeeee1790556001600a5562015180600b5560405162001235388190039081908339810160408190526200007b91620005e0565b81341015620000d05760405162461bcd60e51b815260206004820152601860248201527f496e73756666696369656e7420636f6c6c61746572616c320000000000000000604482015260640160405180910390fd5b60028054336001600160a01b031991821617909155600080549091166001600160a01b038816179055600362000107868262000440565b50600862000116858262000440565b506001839055600b8190556005829055600780546001600160a01b0319163317905562000143826200014f565b50505050505062000751565b600060646001548362000163919062000679565b6200016f9190620006a5565b905060006200017e826200022a565b90506200021e600380546200019390620003b1565b80601f0160208091040260200160405190810160405280929190818152602001828054620001c190620003b1565b8015620002125780601f10620001e65761010080835404028352916020019162000212565b820191906000526020600020905b815481529060010190602001808311620001f457829003601f168201915b50506200028292505050565b50506004556006555050565b60008062000240600380546200019390620003b1565b50509050600062000259600880546200019390620003b1565b50909150849050826200026d828462000679565b620002799190620006a5565b95945050505050565b6000805460405163413b07e560e11b815260206004820152600c60248201526b4674736f526567697374727960a01b6044820152829182916001600160a01b0390911690829082906382760fca90606401602060405180830381865afa158015620002f1573d6000803e3d6000fd5b505050506040513d601f19601f82011682018060405250810190620003179190620006c8565b60405163534d7ee360e11b81529091506001600160a01b0382169063a69afdc69062000348908990600401620006ed565b606060405180830381865afa15801562000366573d6000803e3d6000fd5b505050506040513d601f19601f820116820180604052508101906200038c919062000722565b91989097509095509350505050565b634e487b7160e01b600052604160045260246000fd5b600181811c90821680620003c657607f821691505b602082108103620003e757634e487b7160e01b600052602260045260246000fd5b50919050565b601f8211156200043b57600081815260208120601f850160051c81016020861015620004165750805b601f850160051c820191505b81811015620004375782815560010162000422565b5050505b505050565b81516001600160401b038111156200045c576200045c6200039b565b62000474816200046d8454620003b1565b84620003ed565b602080601f831160018114620004ac5760008415620004935750858301515b600019600386901b1c1916600185901b17855562000437565b600085815260208120601f198616915b82811015620004dd57888601518255948401946001909101908401620004bc565b5085821015620004fc5787850151600019600388901b60f8161c191681555b5050505050600190811b01905550565b80516001600160a01b03811681146200052457600080fd5b919050565b60005b83811015620005465781810151838201526020016200052c565b50506000910152565b600082601f8301126200056157600080fd5b81516001600160401b03808211156200057e576200057e6200039b565b604051601f8301601f19908116603f01168101908282118183101715620005a957620005a96200039b565b81604052838152866020858801011115620005c357600080fd5b620005d684602083016020890162000529565b9695505050505050565b60008060008060008060c08789031215620005fa57600080fd5b62000605876200050c565b60208801519096506001600160401b03808211156200062357600080fd5b620006318a838b016200054f565b965060408901519150808211156200064857600080fd5b506200065789828a016200054f565b945050606087015192506080870151915060a087015190509295509295509295565b80820281158282048414176200069f57634e487b7160e01b600052601160045260246000fd5b92915050565b600082620006c357634e487b7160e01b600052601260045260246000fd5b500490565b600060208284031215620006db57600080fd5b620006e6826200050c565b9392505050565b60208152600082518060208401526200070e81604085016020870162000529565b601f01601f19169190910160400192915050565b6000806000606084860312156200073857600080fd5b8351925060208401519150604084015190509250925092565b610ad480620007616000396000f3fe608060405234801561001057600080fd5b50600436106101165760003560e01c80634e230f58116100a2578063b2016bd411610071578063b2016bd414610213578063b4eae1cb14610226578063bd885f4f1461022f578063ef9b86f814610238578063fca3b5aa1461024b57600080fd5b80634e230f58146101dc578063550066d5146101e45780638aad5000146101ed5780638da5cb5b1461020057600080fd5b806314d8a4ad116100e957806314d8a4ad146101a45780631cde6fbd146101ad57806324cfbd96146101c257806327e77a56146101cb57806344df8e70146101d457600080fd5b8063033570671461011b578063075461721461014e5780630f76c1141461017957806313af40351461018f575b600080fd5b61012e610129366004610885565b61025e565b604080519384526020840192909252908201526060015b60405180910390f35b600254610161906001600160a01b031681565b6040516001600160a01b039091168152602001610145565b61018161036f565b604051908152602001610145565b6101a261019d36600461094e565b61042f565b005b61018160045481565b6101b56104b0565b604051610145919061096b565b61018160065481565b61018160055481565b6101a261053e565b6101b5610774565b610181600b5481565b6101816101fb3660046109b9565b610781565b600754610161906001600160a01b031681565b600954610161906001600160a01b031681565b61018160015481565b610181600a5481565b600054610161906001600160a01b031681565b6101a261025936600461094e565b6107cf565b6000805460405163413b07e560e11b815260206004820152600c60248201526b4674736f526567697374727960a01b6044820152829182916001600160a01b0390911690829082906382760fca90606401602060405180830381865afa1580156102cc573d6000803e3d6000fd5b505050506040513d601f19601f820116820180604052508101906102f091906109d2565b60405163534d7ee360e11b81529091506001600160a01b0382169063a69afdc69061031f90899060040161096b565b606060405180830381865afa15801561033c573d6000803e3d6000fd5b505050506040513d601f19601f8201168201806040525081019061036091906109ef565b91989097509095509350505050565b6000806104056003805461038290610a1d565b80601f01602080910402602001604051908101604052809291908181526020018280546103ae90610a1d565b80156103fb5780601f106103d0576101008083540402835291602001916103fb565b820191906000526020600020905b8154815290600101906020018083116103de57829003601f168201915b505050505061025e565b505090506000816006546104199190610a57565b9050610428620186a082610a7c565b9392505050565b6007546001600160a01b0316331461048e5760405162461bcd60e51b815260206004820181905260248201527f4f6e6c7920746865206f776e65722063616e2073657420746865206f776e657260448201526064015b60405180910390fd5b600780546001600160a01b0319166001600160a01b0392909216919091179055565b600880546104bd90610a1d565b80601f01602080910402602001604051908101604052809291908181526020018280546104e990610a1d565b80156105365780601f1061050b57610100808354040283529160200191610536565b820191906000526020600020905b81548152906001019060200180831161051957829003601f168201915b505050505081565b6007546001600160a01b031633146105ad5760405162461bcd60e51b815260206004820152602c60248201527f4f6e6c7920746865206f776e65722063616e206275726e207468652073796e7460448201526b686574696320746f6b656e7360a01b6064820152608401610485565b600b5442116105fe5760405162461bcd60e51b815260206004820152601b60248201527f4c6f636b696e6720706572696f64206e6f74206f7665722079657400000000006044820152606401610485565b600061060861036f565b9050600061061860055483610855565b6007546040519192506001600160a01b03169082156108fc029083906000818181858888f19350505050158015610653573d6000803e3d6000fd5b50600754604080516001600160a01b039092168252602082018390527fe6b170303edd858cc786eedc6ffcd2b89b61fcca0c256259fad4c28af6097c6b910160405180910390a1471561072457600254604080516001600160a01b0390921682524760208301527fcd572b2698ab63774e4f8556b714b54f2ad837515ef128632e6d5891d9f8959d910160405180910390a16002546040516001600160a01b03909116904780156108fc02916000818181858888f1935050505015801561071e573d6000803e3d6000fd5b5061076b565b600254604080516001600160a01b039092168252600060208301527fcd572b2698ab63774e4f8556b714b54f2ad837515ef128632e6d5891d9f8959d910160405180910390a15b50506000600655565b600380546104bd90610a1d565b6000806107946003805461038290610a1d565b5050905060006107aa6008805461038290610a1d565b50909150849050826107bc8284610a57565b6107c69190610a7c565b95945050505050565b6007546001600160a01b031633146108335760405162461bcd60e51b815260206004820152602160248201527f4f6e6c7920746865206f776e65722063616e2073657420746865206d696e74656044820152603960f91b6064820152608401610485565b600280546001600160a01b0319166001600160a01b0392909216919091179055565b60008183106108645781610866565b825b90505b92915050565b634e487b7160e01b600052604160045260246000fd5b60006020828403121561089757600080fd5b813567ffffffffffffffff808211156108af57600080fd5b818401915084601f8301126108c357600080fd5b8135818111156108d5576108d561086f565b604051601f8201601f19908116603f011681019083821181831017156108fd576108fd61086f565b8160405282815287602084870101111561091657600080fd5b826020860160208301376000928101602001929092525095945050505050565b6001600160a01b038116811461094b57600080fd5b50565b60006020828403121561096057600080fd5b813561042881610936565b600060208083528351808285015260005b818110156109985785810183015185820160400152820161097c565b506000604082860101526040601f19601f8301168501019250505092915050565b6000602082840312156109cb57600080fd5b5035919050565b6000602082840312156109e457600080fd5b815161042881610936565b600080600060608486031215610a0457600080fd5b8351925060208401519150604084015190509250925092565b600181811c90821680610a3157607f821691505b602082108103610a5157634e487b7160e01b600052602260045260246000fd5b50919050565b808202811582820484141761086957634e487b7160e01b600052601160045260246000fd5b600082610a9957634e487b7160e01b600052601260045260246000fd5b50049056fea2646970667358221220f1d2571b94cbaf8d213e9f180847e9b79ba1d566087459c072f4cf35bd812a7064736f6c63430008110033a26469706673582212204a00b7a2cb2817215e3acd14b3f300def77a1d01534619fab11a6b8f734925ba64736f6c63430008110033",
  "devdoc": {
    "kind": "dev",
    "methods": {
      "approve(address,uint256)": {
        "details": "Gives permission to `to` to transfer `tokenId` token to another account. The approval is cleared when the token is transferred. Only a single account can be approved at a time, so approving the zero address clears previous approvals. Requirements: - The caller must own the token or be an approved operator. - `tokenId` must exist. Emits an {Approval} event."
      },
      "balanceOf(address)": {
        "details": "Returns the number of tokens in ``owner``'s account."
      },
      "getApproved(uint256)": {
        "details": "Returns the account approved for `tokenId` token. Requirements: - `tokenId` must exist."
      },
      "isApprovedForAll(address,address)": {
        "details": "Returns if the `operator` is allowed to manage all of the assets of `owner`. See {setApprovalForAll}"
      },
      "ownerOf(uint256)": {
        "details": "Returns the owner of the `tokenId` token. Requirements: - `tokenId` must exist."
      },
      "safeTransferFrom(address,address,uint256)": {
        "details": "Safely transfers `tokenId` token from `from` to `to`, checking first that contract recipients are aware of the ERC721 protocol to prevent tokens from being forever locked. Requirements: - `from` cannot be the zero address. - `to` cannot be the zero address. - `tokenId` token must exist and be owned by `from`. - If the caller is not `from`, it must have been allowed to move this token by either {approve} or {setApprovalForAll}. - If `to` refers to a smart contract, it must implement {IERC721Receiver-onERC721Received}, which is called upon a safe transfer. Emits a {Transfer} event."
      },
      "safeTransferFrom(address,address,uint256,bytes)": {
        "details": "Safely transfers `tokenId` token from `from` to `to`. Requirements: - `from` cannot be the zero address. - `to` cannot be the zero address. - `tokenId` token must exist and be owned by `from`. - If the caller is not `from`, it must be approved to move this token by either {approve} or {setApprovalForAll}. - If `to` refers to a smart contract, it must implement {IERC721Receiver-onERC721Received}, which is called upon a safe transfer. Emits a {Transfer} event."
      },
      "setApprovalForAll(address,bool)": {
        "details": "Approve or remove `operator` as an operator for the caller. Operators can call {transferFrom} or {safeTransferFrom} for any token owned by the caller. Requirements: - The `operator` cannot be the caller. Emits an {ApprovalForAll} event."
      },
      "supportsInterface(bytes4)": {
        "details": "Returns true if this contract implements the interface defined by `interfaceId`. See the corresponding https://eips.ethereum.org/EIPS/eip-165#how-interfaces-are-identified[EIP section] to learn more about how these ids are created. This function call must use less than 30 000 gas."
      },
      "transferFrom(address,address,uint256)": {
        "details": "Transfers `tokenId` token from `from` to `to`. WARNING: Note that the caller is responsible to confirm that the recipient is capable of receiving ERC721 or else they may be permanently lost. Usage of {safeTransferFrom} prevents loss, though the caller must understand this adds an external call which potentially creates a reentrancy vulnerability. Requirements: - `from` cannot be the zero address. - `to` cannot be the zero address. - `tokenId` token must be owned by `from`. - If the caller is not `from`, it must be approved to move this token by either {approve} or {setApprovalForAll}. Emits a {Transfer} event."
      }
    },
    "version": 1
  },
  "userdoc": {
    "kind": "user",
    "methods": {},
    "version": 1
  },
  "storageLayout": {
    "storage": [
      {
        "astId": 6888,
        "contract": "contracts/Broker.sol:Broker",
        "label": "balances",
        "offset": 0,
        "slot": "0",
        "type": "t_mapping(t_address,t_uint256)"
      },
      {
        "astId": 6892,
        "contract": "contracts/Broker.sol:Broker",
        "label": "owners",
        "offset": 0,
        "slot": "1",
        "type": "t_mapping(t_uint256,t_address)"
      },
      {
        "astId": 6896,
        "contract": "contracts/Broker.sol:Broker",
        "label": "vaults",
        "offset": 0,
        "slot": "2",
        "type": "t_mapping(t_uint256,t_address)"
      },
      {
        "astId": 6901,
        "contract": "contracts/Broker.sol:Broker",
        "label": "vaultsByOwner",
        "offset": 0,
        "slot": "3",
        "type": "t_mapping(t_address,t_array(t_uint256)dyn_storage)"
      },
      {
        "astId": 6903,
        "contract": "contracts/Broker.sol:Broker",
        "label": "flareContractRegistry",
        "offset": 0,
        "slot": "4",
        "type": "t_address"
      },
      {
        "astId": 6905,
        "contract": "contracts/Broker.sol:Broker",
        "label": "symbolCollateral",
        "offset": 0,
        "slot": "5",
        "type": "t_string_storage"
      },
      {
        "astId": 6907,
        "contract": "contracts/Broker.sol:Broker",
        "label": "collateralRatio",
        "offset": 0,
        "slot": "6",
        "type": "t_uint256"
      },
      {
        "astId": 6909,
        "contract": "contracts/Broker.sol:Broker",
        "label": "lockingPeriod",
        "offset": 0,
        "slot": "7",
        "type": "t_uint256"
      },
      {
        "astId": 6911,
        "contract": "contracts/Broker.sol:Broker",
        "label": "owner",
        "offset": 0,
        "slot": "8",
        "type": "t_address"
      },
      {
        "astId": 6913,
        "contract": "contracts/Broker.sol:Broker",
        "label": "fee",
        "offset": 0,
        "slot": "9",
        "type": "t_uint256"
      }
    ],
    "types": {
      "t_address": {
        "encoding": "inplace",
        "label": "address",
        "numberOfBytes": "20"
      },
      "t_array(t_uint256)dyn_storage": {
        "base": "t_uint256",
        "encoding": "dynamic_array",
        "label": "uint256[]",
        "numberOfBytes": "32"
      },
      "t_mapping(t_address,t_array(t_uint256)dyn_storage)": {
        "encoding": "mapping",
        "key": "t_address",
        "label": "mapping(address => uint256[])",
        "numberOfBytes": "32",
        "value": "t_array(t_uint256)dyn_storage"
      },
      "t_mapping(t_address,t_uint256)": {
        "encoding": "mapping",
        "key": "t_address",
        "label": "mapping(address => uint256)",
        "numberOfBytes": "32",
        "value": "t_uint256"
      },
      "t_mapping(t_uint256,t_address)": {
        "encoding": "mapping",
        "key": "t_uint256",
        "label": "mapping(uint256 => address)",
        "numberOfBytes": "32",
        "value": "t_address"
      },
      "t_string_storage": {
        "encoding": "bytes",
        "label": "string",
        "numberOfBytes": "32"
      },
      "t_uint256": {
        "encoding": "inplace",
        "label": "uint256",
        "numberOfBytes": "32"
      }
    }
  }
}