{
  "address": "0x63157F59FCB93bC0c1CD314C70E2d85f75cBB2a4",
  "abi": [
    {
      "inputs": [
        {
          "internalType": "address",
          "name": "_evmVerifierOfFlareTransaction",
          "type": "address"
        },
        {
          "internalType": "uint256",
          "name": "_chainId",
          "type": "uint256"
        },
        {
          "components": [
            {
              "internalType": "address",
              "name": "_address",
              "type": "address"
            },
            {
              "internalType": "uint256",
              "name": "_quantity",
              "type": "uint256"
            },
            {
              "internalType": "uint256",
              "name": "_chainId",
              "type": "uint256"
            },
            {
              "internalType": "address",
              "name": "_contributor",
              "type": "address"
            }
          ],
          "internalType": "struct Token[]",
          "name": "_requiredTokens",
          "type": "tuple[]"
        }
      ],
      "stateMutability": "nonpayable",
      "type": "constructor"
    },
    {
      "anonymous": false,
      "inputs": [
        {
          "indexed": false,
          "internalType": "uint256",
          "name": "_vaultId",
          "type": "uint256"
        },
        {
          "indexed": false,
          "internalType": "address",
          "name": "_address",
          "type": "address"
        },
        {
          "indexed": false,
          "internalType": "uint256",
          "name": "_quantity",
          "type": "uint256"
        },
        {
          "indexed": false,
          "internalType": "uint256",
          "name": "_chainId",
          "type": "uint256"
        },
        {
          "indexed": false,
          "internalType": "address",
          "name": "_contributor",
          "type": "address"
        }
      ],
      "name": "Deposit",
      "type": "event"
    },
    {
      "inputs": [
        {
          "internalType": "uint256",
          "name": "_vaultId",
          "type": "uint256"
        }
      ],
      "name": "burn",
      "outputs": [],
      "stateMutability": "nonpayable",
      "type": "function"
    },
    {
      "inputs": [],
      "name": "chainId",
      "outputs": [
        {
          "internalType": "uint256",
          "name": "",
          "type": "uint256"
        }
      ],
      "stateMutability": "view",
      "type": "function"
    },
    {
      "inputs": [
        {
          "components": [
            {
              "internalType": "bytes32[]",
              "name": "merkleProof",
              "type": "bytes32[]"
            },
            {
              "components": [
                {
                  "internalType": "bytes32",
                  "name": "attestationType",
                  "type": "bytes32"
                },
                {
                  "internalType": "bytes32",
                  "name": "sourceId",
                  "type": "bytes32"
                },
                {
                  "internalType": "uint64",
                  "name": "votingRound",
                  "type": "uint64"
                },
                {
                  "internalType": "uint64",
                  "name": "lowestUsedTimestamp",
                  "type": "uint64"
                },
                {
                  "components": [
                    {
                      "internalType": "bytes32",
                      "name": "transactionHash",
                      "type": "bytes32"
                    },
                    {
                      "internalType": "uint16",
                      "name": "requiredConfirmations",
                      "type": "uint16"
                    },
                    {
                      "internalType": "bool",
                      "name": "provideInput",
                      "type": "bool"
                    },
                    {
                      "internalType": "bool",
                      "name": "listEvents",
                      "type": "bool"
                    },
                    {
                      "internalType": "uint32[]",
                      "name": "logIndices",
                      "type": "uint32[]"
                    }
                  ],
                  "internalType": "struct EVMTransaction.RequestBody",
                  "name": "requestBody",
                  "type": "tuple"
                },
                {
                  "components": [
                    {
                      "internalType": "uint64",
                      "name": "blockNumber",
                      "type": "uint64"
                    },
                    {
                      "internalType": "uint64",
                      "name": "timestamp",
                      "type": "uint64"
                    },
                    {
                      "internalType": "address",
                      "name": "sourceAddress",
                      "type": "address"
                    },
                    {
                      "internalType": "bool",
                      "name": "isDeployment",
                      "type": "bool"
                    },
                    {
                      "internalType": "address",
                      "name": "receivingAddress",
                      "type": "address"
                    },
                    {
                      "internalType": "uint256",
                      "name": "value",
                      "type": "uint256"
                    },
                    {
                      "internalType": "bytes",
                      "name": "input",
                      "type": "bytes"
                    },
                    {
                      "internalType": "uint8",
                      "name": "status",
                      "type": "uint8"
                    },
                    {
                      "components": [
                        {
                          "internalType": "uint32",
                          "name": "logIndex",
                          "type": "uint32"
                        },
                        {
                          "internalType": "address",
                          "name": "emitterAddress",
                          "type": "address"
                        },
                        {
                          "internalType": "bytes32[]",
                          "name": "topics",
                          "type": "bytes32[]"
                        },
                        {
                          "internalType": "bytes",
                          "name": "data",
                          "type": "bytes"
                        },
                        {
                          "internalType": "bool",
                          "name": "removed",
                          "type": "bool"
                        }
                      ],
                      "internalType": "struct EVMTransaction.Event[]",
                      "name": "events",
                      "type": "tuple[]"
                    }
                  ],
                  "internalType": "struct EVMTransaction.ResponseBody",
                  "name": "responseBody",
                  "type": "tuple"
                }
              ],
              "internalType": "struct EVMTransaction.Response",
              "name": "data",
              "type": "tuple"
            }
          ],
          "internalType": "struct EVMTransaction.Proof",
          "name": "_transaction",
          "type": "tuple"
        }
      ],
      "name": "checkBurn",
      "outputs": [],
      "stateMutability": "nonpayable",
      "type": "function"
    },
    {
      "inputs": [
        {
          "internalType": "uint256",
          "name": "_vaultId",
          "type": "uint256"
        },
        {
          "components": [
            {
              "internalType": "address",
              "name": "_address",
              "type": "address"
            },
            {
              "internalType": "uint256",
              "name": "_quantity",
              "type": "uint256"
            },
            {
              "internalType": "uint256",
              "name": "_chainId",
              "type": "uint256"
            },
            {
              "internalType": "address",
              "name": "_contributor",
              "type": "address"
            }
          ],
          "internalType": "struct Token[]",
          "name": "_tokens",
          "type": "tuple[]"
        }
      ],
      "name": "depositLock",
      "outputs": [],
      "stateMutability": "nonpayable",
      "type": "function"
    },
    {
      "inputs": [],
      "name": "evmVerifierOfFlareTransaction",
      "outputs": [
        {
          "internalType": "address",
          "name": "",
          "type": "address"
        }
      ],
      "stateMutability": "view",
      "type": "function"
    },
    {
      "inputs": [],
      "name": "getVaultStates",
      "outputs": [
        {
          "internalType": "enum VaultState[]",
          "name": "",
          "type": "uint8[]"
        }
      ],
      "stateMutability": "view",
      "type": "function"
    },
    {
      "inputs": [
        {
          "components": [
            {
              "internalType": "bytes32[]",
              "name": "merkleProof",
              "type": "bytes32[]"
            },
            {
              "components": [
                {
                  "internalType": "bytes32",
                  "name": "attestationType",
                  "type": "bytes32"
                },
                {
                  "internalType": "bytes32",
                  "name": "sourceId",
                  "type": "bytes32"
                },
                {
                  "internalType": "uint64",
                  "name": "votingRound",
                  "type": "uint64"
                },
                {
                  "internalType": "uint64",
                  "name": "lowestUsedTimestamp",
                  "type": "uint64"
                },
                {
                  "components": [
                    {
                      "internalType": "bytes32",
                      "name": "transactionHash",
                      "type": "bytes32"
                    },
                    {
                      "internalType": "uint16",
                      "name": "requiredConfirmations",
                      "type": "uint16"
                    },
                    {
                      "internalType": "bool",
                      "name": "provideInput",
                      "type": "bool"
                    },
                    {
                      "internalType": "bool",
                      "name": "listEvents",
                      "type": "bool"
                    },
                    {
                      "internalType": "uint32[]",
                      "name": "logIndices",
                      "type": "uint32[]"
                    }
                  ],
                  "internalType": "struct EVMTransaction.RequestBody",
                  "name": "requestBody",
                  "type": "tuple"
                },
                {
                  "components": [
                    {
                      "internalType": "uint64",
                      "name": "blockNumber",
                      "type": "uint64"
                    },
                    {
                      "internalType": "uint64",
                      "name": "timestamp",
                      "type": "uint64"
                    },
                    {
                      "internalType": "address",
                      "name": "sourceAddress",
                      "type": "address"
                    },
                    {
                      "internalType": "bool",
                      "name": "isDeployment",
                      "type": "bool"
                    },
                    {
                      "internalType": "address",
                      "name": "receivingAddress",
                      "type": "address"
                    },
                    {
                      "internalType": "uint256",
                      "name": "value",
                      "type": "uint256"
                    },
                    {
                      "internalType": "bytes",
                      "name": "input",
                      "type": "bytes"
                    },
                    {
                      "internalType": "uint8",
                      "name": "status",
                      "type": "uint8"
                    },
                    {
                      "components": [
                        {
                          "internalType": "uint32",
                          "name": "logIndex",
                          "type": "uint32"
                        },
                        {
                          "internalType": "address",
                          "name": "emitterAddress",
                          "type": "address"
                        },
                        {
                          "internalType": "bytes32[]",
                          "name": "topics",
                          "type": "bytes32[]"
                        },
                        {
                          "internalType": "bytes",
                          "name": "data",
                          "type": "bytes"
                        },
                        {
                          "internalType": "bool",
                          "name": "removed",
                          "type": "bool"
                        }
                      ],
                      "internalType": "struct EVMTransaction.Event[]",
                      "name": "events",
                      "type": "tuple[]"
                    }
                  ],
                  "internalType": "struct EVMTransaction.ResponseBody",
                  "name": "responseBody",
                  "type": "tuple"
                }
              ],
              "internalType": "struct EVMTransaction.Response",
              "name": "data",
              "type": "tuple"
            }
          ],
          "internalType": "struct EVMTransaction.Proof",
          "name": "transaction",
          "type": "tuple"
        }
      ],
      "name": "isEVMTransactionProofValid",
      "outputs": [
        {
          "internalType": "bool",
          "name": "",
          "type": "bool"
        }
      ],
      "stateMutability": "view",
      "type": "function"
    },
    {
      "inputs": [
        {
          "internalType": "uint256",
          "name": "",
          "type": "uint256"
        }
      ],
      "name": "transactions",
      "outputs": [
        {
          "components": [
            {
              "internalType": "bytes32[]",
              "name": "merkleProof",
              "type": "bytes32[]"
            },
            {
              "components": [
                {
                  "internalType": "bytes32",
                  "name": "attestationType",
                  "type": "bytes32"
                },
                {
                  "internalType": "bytes32",
                  "name": "sourceId",
                  "type": "bytes32"
                },
                {
                  "internalType": "uint64",
                  "name": "votingRound",
                  "type": "uint64"
                },
                {
                  "internalType": "uint64",
                  "name": "lowestUsedTimestamp",
                  "type": "uint64"
                },
                {
                  "components": [
                    {
                      "internalType": "bytes32",
                      "name": "transactionHash",
                      "type": "bytes32"
                    },
                    {
                      "internalType": "uint16",
                      "name": "requiredConfirmations",
                      "type": "uint16"
                    },
                    {
                      "internalType": "bool",
                      "name": "provideInput",
                      "type": "bool"
                    },
                    {
                      "internalType": "bool",
                      "name": "listEvents",
                      "type": "bool"
                    },
                    {
                      "internalType": "uint32[]",
                      "name": "logIndices",
                      "type": "uint32[]"
                    }
                  ],
                  "internalType": "struct EVMTransaction.RequestBody",
                  "name": "requestBody",
                  "type": "tuple"
                },
                {
                  "components": [
                    {
                      "internalType": "uint64",
                      "name": "blockNumber",
                      "type": "uint64"
                    },
                    {
                      "internalType": "uint64",
                      "name": "timestamp",
                      "type": "uint64"
                    },
                    {
                      "internalType": "address",
                      "name": "sourceAddress",
                      "type": "address"
                    },
                    {
                      "internalType": "bool",
                      "name": "isDeployment",
                      "type": "bool"
                    },
                    {
                      "internalType": "address",
                      "name": "receivingAddress",
                      "type": "address"
                    },
                    {
                      "internalType": "uint256",
                      "name": "value",
                      "type": "uint256"
                    },
                    {
                      "internalType": "bytes",
                      "name": "input",
                      "type": "bytes"
                    },
                    {
                      "internalType": "uint8",
                      "name": "status",
                      "type": "uint8"
                    },
                    {
                      "components": [
                        {
                          "internalType": "uint32",
                          "name": "logIndex",
                          "type": "uint32"
                        },
                        {
                          "internalType": "address",
                          "name": "emitterAddress",
                          "type": "address"
                        },
                        {
                          "internalType": "bytes32[]",
                          "name": "topics",
                          "type": "bytes32[]"
                        },
                        {
                          "internalType": "bytes",
                          "name": "data",
                          "type": "bytes"
                        },
                        {
                          "internalType": "bool",
                          "name": "removed",
                          "type": "bool"
                        }
                      ],
                      "internalType": "struct EVMTransaction.Event[]",
                      "name": "events",
                      "type": "tuple[]"
                    }
                  ],
                  "internalType": "struct EVMTransaction.ResponseBody",
                  "name": "responseBody",
                  "type": "tuple"
                }
              ],
              "internalType": "struct EVMTransaction.Response",
              "name": "data",
              "type": "tuple"
            }
          ],
          "internalType": "struct EVMTransaction.Proof",
          "name": "originalTransaction",
          "type": "tuple"
        },
        {
          "internalType": "uint256",
          "name": "eventNumber",
          "type": "uint256"
        }
      ],
      "stateMutability": "view",
      "type": "function"
    },
    {
      "inputs": [
        {
          "internalType": "uint256",
          "name": "",
          "type": "uint256"
        }
      ],
      "name": "vaults",
      "outputs": [
        {
          "internalType": "enum VaultState",
          "name": "state",
          "type": "uint8"
        }
      ],
      "stateMutability": "view",
      "type": "function"
    }
  ],
  "transactionHash": "0x9647e1c393d33bd5b963616be13e30166eade28d48667dc8ecff7af98b0d4d7a",
  "args": [
    "0x0bd4a6D3eFbB0aa8b191AE71E7dfF41c10fe8B9F",
    "31337",
    [
      {
        "_address": "0xFCb7E64A67dFAb710c3064e097B50B1d93898E71",
        "_quantity": "100000000000000000000",
        "_chainId": "31337",
        "_contributor": "0x2a1F5eB3e84e58e6F1e565306298B9dE1273f203"
      },
      {
        "_address": "0x60a0F6a9952061A78E903B98e5452A996FD4233c",
        "_quantity": "50000000000000000000",
        "_chainId": "31337",
        "_contributor": "0x2a1F5eB3e84e58e6F1e565306298B9dE1273f203"
      }
    ]
  ],
  "numDeployments": 6,
  "solcInputHash": "3c210b035aa3c28c4dec96490c05a199",
  "bytecode": "0x60806040523480156200001157600080fd5b506040516200255e3803806200255e833981016040819052620000349162000195565b600080546001600160a01b0319166001600160a01b03851617815560028390555b8151811015620000fa576001828281518110620000765762000076620002b3565b602090810291909101810151825460018082018555600094855293839020825160049092020180546001600160a01b03199081166001600160a01b0393841617825593830151948101949094556040820151600285015560609091015160039093018054909216921691909117905580620000f181620002c9565b91505062000055565b50505050620002f1565b80516001600160a01b03811681146200011c57600080fd5b919050565b634e487b7160e01b600052604160045260246000fd5b604051608081016001600160401b03811182821017156200015c576200015c62000121565b60405290565b604051601f8201601f191681016001600160401b03811182821017156200018d576200018d62000121565b604052919050565b60008060006060808587031215620001ac57600080fd5b620001b78562000104565b9350602080860151935060408087015160018060401b0380821115620001dc57600080fd5b818901915089601f830112620001f157600080fd5b81518181111562000206576200020662000121565b62000216858260051b0162000162565b818152858101925060079190911b83018501908b8211156200023757600080fd5b928501925b81841015620002a2576080848d031215620002575760008081fd5b6200026162000137565b6200026c8562000104565b8152868501518782015285850151868201526200028b88860162000104565b81890152835260809390930192918501916200023c565b809750505050505050509250925092565b634e487b7160e01b600052603260045260246000fd5b600060018201620002ea57634e487b7160e01b600052601160045260246000fd5b5060010190565b61225d80620003016000396000f3fe608060405234801561001057600080fd5b50600436106100935760003560e01c80634c1e4d3e116100665780634c1e4d3e146100fd57806354af71e5146101105780638c64ea4a1461013b5780639a8a05921461016e5780639ace38c21461018557600080fd5b806309f5dc911461009857806314d1597e146100c0578063309bfe4a146100d557806342966c68146100ea575b600080fd5b6100ab6100a6366004610e0b565b6101a6565b60405190151581526020015b60405180910390f35b6100d36100ce366004610e0b565b610227565b005b6100dd61059d565b6040516100b79190610e84565b6100d36100f8366004610ecf565b610645565b6100d361010b366004610f7e565b61075d565b600054610123906001600160a01b031681565b6040516001600160a01b0390911681526020016100b7565b610161610149366004610ecf565b60046020526000908152604090206001015460ff1681565b6040516100b7919061107d565b61017760025481565b6040519081526020016100b7565b610198610193366004610ecf565b6109d3565b6040516100b792919061128e565b6040516358fbe9e160e01b8152600090730bd4a6d3efbb0aa8b191ae71e7dff41c10fe8b9f906358fbe9e1906101e0908590600401611702565b602060405180830381865afa1580156101fd573d6000803e3d6000fd5b505050506040513d601f19601f820116820180604052508101906102219190611872565b92915050565b610230816101a6565b6102805760405162461bcd60e51b815260206004820152601960248201527f496e76616c6964207472616e73616374696f6e2070726f6f6600000000000000604482015260640160405180910390fd5b6003805460018101808355600083905290918391839081106102a4576102a461188f565b600091825260209091206010909102016102be8282612041565b506102ce90506020830183611988565b6102dc9060a0810190611b39565b6102eb906101008101906118a5565b9050600382815481106103005761030061188f565b600091825260208220600e60109092020101919091557ff6554c3a5d28e08c120b5a69c7edbaf52f935bd2596a60b8a18e282cd257cddb905b6103466020850185611988565b6103549060a0810190611b39565b610363906101008101906118a5565b9050811015610597578161037a6020860186611988565b6103889060a0810190611b39565b610397906101008101906118a5565b838181106103a7576103a761188f565b90506020028101906103b991906119b5565b6103c79060408101906118a5565b60008181106103d8576103d861188f565b9050602002013503610585576000806103f46020870187611988565b6104029060a0810190611b39565b610411906101008101906118a5565b848181106104215761042161188f565b905060200281019061043391906119b5565b610441906060810190611b7d565b81019061044e91906121de565b6000828152600460205260408120600101805460ff1916600317905591935091505b6000838152600460205260409020548110156105815760008381526004602052604090208054829081106104a6576104a661188f565b6000918252602080832060049283020154868452919052604090912080546001600160a01b039092169163a9059cbb918591859081106104e8576104e861188f565b9060005260206000209060040201600101546040518363ffffffff1660e01b815260040161052b9291906001600160a01b03929092168252602082015260400190565b6020604051808303816000875af115801561054a573d6000803e3d6000fd5b505050506040513d601f19601f8201168201806040525081019061056e9190611872565b50806105798161220e565b915050610470565b5050505b8061058f8161220e565b915050610339565b50505050565b60408051605a808252610b6082019092526060916000919060208201610b408036833701905050905060005b815181101561063f57600081815260046020526040902060010154825160ff909116908390839081106105fe576105fe61188f565b6020026020010190600381111561061757610617610e4c565b9081600381111561062a5761062a610e4c565b905250806106378161220e565b9150506105c9565b50919050565b60005b60008281526004602052604090205481101561075957600082815260046020526040902080548290811061067e5761067e61188f565b6000918252602080832060049283020154858452919052604090912080546001600160a01b039092169163a9059cbb913391859081106106c0576106c061188f565b9060005260206000209060040201600101546040518363ffffffff1660e01b81526004016107039291906001600160a01b03929092168252602082015260400190565b6020604051808303816000875af1158015610722573d6000803e3d6000fd5b505050506040513d601f19601f820116820180604052508101906107469190611872565b50806107518161220e565b915050610648565b5050565b60005b81518110156109ce5781818151811061077b5761077b61188f565b6020026020010151600001516001600160a01b03166323b872dd8383815181106107a7576107a761188f565b602002602001015160600151308585815181106107c6576107c661188f565b60209081029190910181015101516040516001600160e01b031960e086901b1681526001600160a01b03938416600482015292909116602483015260448201526064016020604051808303816000875af1158015610828573d6000803e3d6000fd5b505050506040513d601f19601f8201168201806040525081019061084c9190611872565b506000838152600460205260409020825183908390811061086f5761086f61188f565b602090810291909101810151825460018082018555600094855293839020825160049092020180546001600160a01b03199081166001600160a01b0393841617825593830151948101949094556040820151600285015560609091015160039093018054909216921691909117905581517f92c4ae82457b93c1cf331ba7edc25c42b279a02ae829e0c61d148a945eabf6759084908490849081106109165761091661188f565b6020026020010151600001518484815181106109345761093461188f565b6020026020010151602001518585815181106109525761095261188f565b6020026020010151604001518686815181106109705761097061188f565b6020026020010151606001516040516109b49594939291909485526001600160a01b0393841660208601526040850192909252606084015216608082015260a00190565b60405180910390a1806109c68161220e565b915050610760565b505050565b600381815481106109e357600080fd5b6000918252602091829020604080516010909302909101805460609481028401850183529183018281529094509192849284929091849190840182828015610a4a57602002820191906000526020600020905b815481526020019060010190808311610a36575b50505091835250506040805160c0810182526001840180548252600285015460208381019190915260038601546001600160401b0380821685870152600160401b90910416606080850191909152845160a0810186526004880180548252600589015461ffff81168386015260ff62010000820481161515848a01526301000000909104161515928201929092526006880180548751818602810186019098528088529784019795969495608080890196939590860193929190830182828015610b5f57602002820191906000526020600020906000905b82829054906101000a900463ffffffff1663ffffffff1681526020019060040190602082600301049283019260010382029150808411610b225790505b50505091909252505050815260408051610120810182526006840180546001600160401b038082168452600160401b9091041660208084019190915260078601546001600160a01b0380821695850195909552600160a01b900460ff161515606084015260088601549093166080830152600985015460a0830152600a8501805493909401939192909160c0840191610bf790611bc3565b80601f0160208091040260200160405190810160405280929190818152602001828054610c2390611bc3565b8015610c705780601f10610c4557610100808354040283529160200191610c70565b820191906000526020600020905b815481529060010190602001808311610c5357829003601f168201915b5050509183525050600582015460ff16602080830191909152600683018054604080518285028101850182528281529401939260009084015b82821015610df55760008481526020908190206040805160a08101825260048602909201805463ffffffff8116845264010000000090046001600160a01b0316838501526001810180548351818702810187018552818152949592949386019392830182828015610d3957602002820191906000526020600020905b815481526020019060010190808311610d25575b50505050508152602001600282018054610d5290611bc3565b80601f0160208091040260200160405190810160405280929190818152602001828054610d7e90611bc3565b8015610dcb5780601f10610da057610100808354040283529160200191610dcb565b820191906000526020600020905b815481529060010190602001808311610dae57829003601f168201915b50505091835250506003919091015460ff1615156020918201529082526001929092019101610ca9565b50505091525050905250905250600e9091015482565b600060208284031215610e1d57600080fd5b81356001600160401b03811115610e3357600080fd5b820160408185031215610e4557600080fd5b9392505050565b634e487b7160e01b600052602160045260246000fd5b60048110610e8057634e487b7160e01b600052602160045260246000fd5b9052565b6020808252825182820181905260009190848201906040850190845b81811015610ec357610eb3838551610e62565b9284019291840191600101610ea0565b50909695505050505050565b600060208284031215610ee157600080fd5b5035919050565b634e487b7160e01b600052604160045260246000fd5b604051608081016001600160401b0381118282101715610f2057610f20610ee8565b60405290565b604051601f8201601f191681016001600160401b0381118282101715610f4e57610f4e610ee8565b604052919050565b6001600160a01b0381168114610f6b57600080fd5b50565b8035610f7981610f56565b919050565b6000806040808486031215610f9257600080fd5b833592506020808501356001600160401b0380821115610fb157600080fd5b818701915087601f830112610fc557600080fd5b813581811115610fd757610fd7610ee8565b610fe5848260051b01610f26565b818152848101925060079190911b83018401908982111561100557600080fd5b928401925b8184101561106d576080848b0312156110235760008081fd5b61102b610efe565b843561103681610f56565b81528486013586820152868501358782015260608086013561105781610f56565b908201528352608093909301929184019161100a565b8096505050505050509250929050565b602081016102218284610e62565b600081518084526020808501945080840160005b838110156110bb5781518752958201959082019060010161109f565b509495945050505050565b6000815180845260005b818110156110ec576020818501810151868301820152016110d0565b506000602082860101526020601f19601f83011685010191505092915050565b600081518084526020808501808196508360051b8101915082860160005b858110156111af5782840389528151805163ffffffff168552858101516001600160a01b03168686015260408082015160a082880181905291906111708389018261108b565b925050506060808301518783038289015261118b83826110c6565b6080948501511515989094019790975250509885019893509084019060010161112a565b5091979650505050505050565b80516001600160401b03168252600061012060208301516111e860208601826001600160401b03169052565b50604083015161120360408601826001600160a01b03169052565b506060830151611217606086018215159052565b50608083015161123260808601826001600160a01b03169052565b5060a083015160a085015260c08301518160c0860152611254828601826110c6565b91505060e083015161126b60e086018260ff169052565b506101008084015185830382870152611284838261110c565b9695505050505050565b60006040808352845181828501526112a9608085018261108b565b9050602080870151603f19868403016060870152805183528181015182840152838101516001600160401b03808216868601528060608401511660608601525050608081015160c060808501526101608401815160c086015261ffff848301511660e0860152858201511515610100860152606082015115156101208601526080820151955060a06101408601528091508551808252610180860192508487019650600091505b8082101561137657865163ffffffff168352958401959184019160019190910190611350565b505060a0820151945083810360a085015261139181866111bc565b9550505085818601525050509392505050565b6000808335601e198436030181126113bb57600080fd5b83016020810192503590506001600160401b038111156113da57600080fd5b8060051b36038213156113ec57600080fd5b9250929050565b81835260006001600160fb1b0383111561140c57600080fd5b8260051b80836020870137939093016020019392505050565b6001600160401b0381168114610f6b57600080fd5b8035610f7981611425565b60008235609e1983360301811261145b57600080fd5b90910192915050565b61ffff81168114610f6b57600080fd5b8015158114610f6b57600080fd5b8035610f7981611474565b63ffffffff81168114610f6b57600080fd5b6000823561011e1983360301811261145b57600080fd5b6000808335601e198436030181126114cd57600080fd5b83016020810192503590506001600160401b038111156114ec57600080fd5b8036038213156113ec57600080fd5b81835281816020850137506000828201602090810191909152601f909101601f19169091010190565b60ff81168114610f6b57600080fd5b8035610f7981611524565b81835260006020808501808196508560051b810191508460005b878110156111af57828403895261156f8288611445565b60a0813561157c8161148d565b63ffffffff1686528187013561159181610f56565b6001600160a01b03168688015260406115ac838201846113a4565b83838a01526115be848a0182846113f3565b935050505060606115d1818401846114b6565b888403838a01526115e38482846114fb565b935050505060808083013592506115f983611474565b91151595909101949094529784019790840190600101611558565b6000610120611633846116268561143a565b6001600160401b03169052565b61163f6020840161143a565b6001600160401b0316602085015261165960408401610f6e565b6001600160a01b0316604085015261167360608401611482565b1515606085015261168660808401610f6e565b6001600160a01b0316608085015260a083810135908501526116ab60c08401846114b6565b8260c08701526116be83870182846114fb565b925050506116ce60e08401611533565b60ff1660e08501526101006116e5848201856113a4565b868403838801526116f784828461153e565b979650505050505050565b6000602080835261171384856113a4565b6040838601526117276060860182846113f3565b9150508185013560be1986360301811261174057600080fd5b8581019050601f19858303016040860152803582528281013583830152604081013561176b81611425565b6001600160401b03908116604084015260608201359061178a82611425565b16606083015261179d6080820182611445565b60c060808401526101608301813560c0850152848201356117bd81611464565b61ffff1660e085015260408201356117d481611474565b151561010085015260608201356117ea81611474565b15156101208501526117ff60808301836113a4565b60a061014087015291829052909150600061018085015b838210156118435782356118298161148d565b63ffffffff16815291860191600191909101908601611816565b61185060a086018661149f565b965085810360a08701526118648188611614565b9a9950505050505050505050565b60006020828403121561188457600080fd5b8151610e4581611474565b634e487b7160e01b600052603260045260246000fd5b6000808335601e198436030181126118bc57600080fd5b8301803591506001600160401b038211156118d657600080fd5b6020019150600581901b36038213156113ec57600080fd5b634e487b7160e01b600052601160045260246000fd5b8054600080835581156109ce57828152602081208281015b808210156119325782825560018201915061191c565b5050505050565b600160401b82111561194d5761194d610ee8565b8054828255808310156109ce576000828152602081208481019083015b808210156119805782825560018201915061196a565b505050505050565b6000823560be1983360301811261199e57600080fd5b9190910192915050565b6000813561022181611425565b60008235609e1983360301811261199e57600080fd5b6000813561022181611474565b5b8181101561075957600081556001016119d9565b600160401b821115611a0157611a01610ee8565b8054828255808310156109ce578160005260206000206007840160031c8101601c8560021b168015611a44576000198083018054828460200360031b1c16815550505b506119326007840160031c8301826119d8565b600081356102218161148d565b6001600160401b03831115611a7b57611a7b610ee8565b611a8583826119ed565b60008181526020902082908460031c60005b81811015611af0576000805b6008811015611ae357611ad2611ab887611a57565b63ffffffff600584901b90811b801986169290911b161790565b602096909601959150600101611aa3565b5083820155600101611a97565b506007198616808703818814611b2f576000805b82811015611b2957611b18611ab888611a57565b602097909701969150600101611b04565b50848401555b5050505050505050565b6000823561011e1983360301811261199e57600080fd5b6000813561022181610f56565b80546001600160a01b0319166001600160a01b0392909216919091179055565b6000808335601e19843603018112611b9457600080fd5b8301803591506001600160401b03821115611bae57600080fd5b6020019150368190038213156113ec57600080fd5b600181811c90821680611bd757607f821691505b60208210810361063f57634e487b7160e01b600052602260045260246000fd5b601f8211156109ce57806000526020600020601f840160051c81016020851015611c1e5750805b611932601f850160051c8301826119d8565b6001600160401b03831115611c4757611c47610ee8565b611c5b83611c558354611bc3565b83611bf7565b6000601f841160018114611c8f5760008515611c775750838201355b600019600387901b1c1916600186901b178355611932565b600083815260209020601f19861690835b82811015611cc05786850135825560209485019460019092019101611ca0565b5086821015611cdd5760001960f88860031b161c19848701351681555b505060018560011b0183555050505050565b6000813561022181611524565b8135611d078161148d565b63ffffffff8116905081548163ffffffff198216178355602080850135611d2d81610f56565b6001600160c01b03199290921690921790821b640100000000600160c01b031617825560019082820190611d6460408601866118a5565b6001600160401b03811115611d7b57611d7b610ee8565b611d858185611939565b6000938452828420935b81811015611da857823585820155918301918501611d8f565b505050505050611dbb6060830183611b7d565b611dc9818360028601611c30565b5050610759611dda608084016119cb565b6003830160ff1981541660ff8315151681178255505050565b600160401b831115611e0757611e07610ee8565b805483825580841015611edc5760026001600160fe1b038281168314611e2f57611e2f6118ee565b8086168614611e4057611e406118ee565b5060008381526020812086831b81019084841b015b80821015611ed7578282556001611e6d818401611904565b848301611e7a8154611bc3565b8015611ec357601f80821160018114611e9557878455611ec0565b600084815260209020611eb183850160051c82018783016119d8565b50600084815260208120818655555b50505b505050826003830155600482019150611e55565b505050505b5060008181526020812083915b8581101561198057611f04611efe84876119b5565b83611cfc565b6020929092019160049190910190600101611ee9565b611f44611f26836119a8565b825467ffffffffffffffff19166001600160401b0391909116178255565b611f7b611f53602084016119a8565b825467ffffffffffffffff60401b191660409190911b67ffffffffffffffff60401b16178255565b60018101611f94611f8e60408501611b50565b82611b5d565b611fc1611fa3606085016119cb565b82805460ff60a01b191691151560a01b60ff60a01b16919091179055565b50611fda611fd160808401611b50565b60028301611b5d565b60a08201356003820155611ff160c0830183611b7d565b611fff818360048601611c30565b505061202561201060e08401611cef565b6005830160ff821660ff198254161781555050565b6120336101008301836118a5565b610597818360068601611df3565b61204b82836118a5565b6001600160401b0381111561206257612062610ee8565b61206c8184611939565b8260005260208060002060005b838110156120935784358282015593820193600101612079565b505080850135925060be198536030183126120ad57600080fd5b918401803560018501558281013560028501559160038401915060408301356120d581611425565b825467ffffffffffffffff19166001600160401b0382161783555060608301356120fe81611425565b825467ffffffffffffffff60401b1916604082901b67ffffffffffffffff60401b161783555061213160808401846119b5565b8035600486015591508101356005840161214a82611464565b8054604084013561215a81611474565b62ffffff199190911661ffff84161790151560101b62ff0000161781556121a4612186606085016119cb565b82805463ff000000191691151560181b63ff00000016919091179055565b50506121b360808201826118a5565b91506121c3828260068701611a64565b50506109ce6121d560a0830183611b39565b60078401611f1a565b600080604083850312156121f157600080fd5b82359150602083013561220381610f56565b809150509250929050565b600060018201612220576122206118ee565b506001019056fea264697066735822122052b56a4c3f6be7c974234585ff95e8f97f9bfc3e66eb275dc8706752e67bd55464736f6c63430008110033",
  "devdoc": {
    "kind": "dev",
    "methods": {},
    "version": 1
  },
  "userdoc": {
    "kind": "user",
    "methods": {},
    "version": 1
  },
  "storageLayout": {
    "storage": [
      {
        "astId": 10008,
        "contract": "contracts/ETFLock.sol:ETFLock",
        "label": "evmVerifierOfFlareTransaction",
        "offset": 0,
        "slot": "0",
        "type": "t_address"
      },
      {
        "astId": 10012,
        "contract": "contracts/ETFLock.sol:ETFLock",
        "label": "requiredTokens",
        "offset": 0,
        "slot": "1",
        "type": "t_array(t_struct(Token)9984_storage)dyn_storage"
      },
      {
        "astId": 10014,
        "contract": "contracts/ETFLock.sol:ETFLock",
        "label": "chainId",
        "offset": 0,
        "slot": "2",
        "type": "t_uint256"
      },
      {
        "astId": 10018,
        "contract": "contracts/ETFLock.sol:ETFLock",
        "label": "transactions",
        "offset": 0,
        "slot": "3",
        "type": "t_array(t_struct(TransactionInfo)10045_storage)dyn_storage"
      },
      {
        "astId": 10035,
        "contract": "contracts/ETFLock.sol:ETFLock",
        "label": "vaults",
        "offset": 0,
        "slot": "4",
        "type": "t_mapping(t_uint256,t_struct(Vault)9992_storage)"
      }
    ],
    "types": {
      "t_address": {
        "encoding": "inplace",
        "label": "address",
        "numberOfBytes": "20"
      },
      "t_array(t_bytes32)dyn_storage": {
        "base": "t_bytes32",
        "encoding": "dynamic_array",
        "label": "bytes32[]",
        "numberOfBytes": "32"
      },
      "t_array(t_struct(Event)1500_storage)dyn_storage": {
        "base": "t_struct(Event)1500_storage",
        "encoding": "dynamic_array",
        "label": "struct EVMTransaction.Event[]",
        "numberOfBytes": "32"
      },
      "t_array(t_struct(EventInfo)10006_storage)dyn_storage": {
        "base": "t_struct(EventInfo)10006_storage",
        "encoding": "dynamic_array",
        "label": "struct EventInfo[]",
        "numberOfBytes": "32"
      },
      "t_array(t_struct(Token)9984_storage)dyn_storage": {
        "base": "t_struct(Token)9984_storage",
        "encoding": "dynamic_array",
        "label": "struct Token[]",
        "numberOfBytes": "32"
      },
      "t_array(t_struct(TransactionInfo)10045_storage)dyn_storage": {
        "base": "t_struct(TransactionInfo)10045_storage",
        "encoding": "dynamic_array",
        "label": "struct ETFLock.TransactionInfo[]",
        "numberOfBytes": "32"
      },
      "t_array(t_uint32)dyn_storage": {
        "base": "t_uint32",
        "encoding": "dynamic_array",
        "label": "uint32[]",
        "numberOfBytes": "32"
      },
      "t_bool": {
        "encoding": "inplace",
        "label": "bool",
        "numberOfBytes": "1"
      },
      "t_bytes32": {
        "encoding": "inplace",
        "label": "bytes32",
        "numberOfBytes": "32"
      },
      "t_bytes_storage": {
        "encoding": "bytes",
        "label": "bytes",
        "numberOfBytes": "32"
      },
      "t_enum(VaultState)9997": {
        "encoding": "inplace",
        "label": "enum VaultState",
        "numberOfBytes": "1"
      },
      "t_mapping(t_uint256,t_struct(Vault)9992_storage)": {
        "encoding": "mapping",
        "key": "t_uint256",
        "label": "mapping(uint256 => struct Vault)",
        "numberOfBytes": "32",
        "value": "t_struct(Vault)9992_storage"
      },
      "t_struct(Event)1500_storage": {
        "encoding": "inplace",
        "label": "struct EVMTransaction.Event",
        "members": [
          {
            "astId": 1490,
            "contract": "contracts/ETFLock.sol:ETFLock",
            "label": "logIndex",
            "offset": 0,
            "slot": "0",
            "type": "t_uint32"
          },
          {
            "astId": 1492,
            "contract": "contracts/ETFLock.sol:ETFLock",
            "label": "emitterAddress",
            "offset": 4,
            "slot": "0",
            "type": "t_address"
          },
          {
            "astId": 1495,
            "contract": "contracts/ETFLock.sol:ETFLock",
            "label": "topics",
            "offset": 0,
            "slot": "1",
            "type": "t_array(t_bytes32)dyn_storage"
          },
          {
            "astId": 1497,
            "contract": "contracts/ETFLock.sol:ETFLock",
            "label": "data",
            "offset": 0,
            "slot": "2",
            "type": "t_bytes_storage"
          },
          {
            "astId": 1499,
            "contract": "contracts/ETFLock.sol:ETFLock",
            "label": "removed",
            "offset": 0,
            "slot": "3",
            "type": "t_bool"
          }
        ],
        "numberOfBytes": "128"
      },
      "t_struct(EventInfo)10006_storage": {
        "encoding": "inplace",
        "label": "struct EventInfo",
        "members": [
          {
            "astId": 9999,
            "contract": "contracts/ETFLock.sol:ETFLock",
            "label": "sender",
            "offset": 0,
            "slot": "0",
            "type": "t_address"
          },
          {
            "astId": 10001,
            "contract": "contracts/ETFLock.sol:ETFLock",
            "label": "quantity",
            "offset": 0,
            "slot": "1",
            "type": "t_uint256"
          },
          {
            "astId": 10003,
            "contract": "contracts/ETFLock.sol:ETFLock",
            "label": "chainId",
            "offset": 0,
            "slot": "2",
            "type": "t_uint256"
          },
          {
            "astId": 10005,
            "contract": "contracts/ETFLock.sol:ETFLock",
            "label": "contributor",
            "offset": 0,
            "slot": "3",
            "type": "t_address"
          }
        ],
        "numberOfBytes": "128"
      },
      "t_struct(Proof)1455_storage": {
        "encoding": "inplace",
        "label": "struct EVMTransaction.Proof",
        "members": [
          {
            "astId": 1451,
            "contract": "contracts/ETFLock.sol:ETFLock",
            "label": "merkleProof",
            "offset": 0,
            "slot": "0",
            "type": "t_array(t_bytes32)dyn_storage"
          },
          {
            "astId": 1454,
            "contract": "contracts/ETFLock.sol:ETFLock",
            "label": "data",
            "offset": 0,
            "slot": "1",
            "type": "t_struct(Response)1448_storage"
          }
        ],
        "numberOfBytes": "448"
      },
      "t_struct(RequestBody)1467_storage": {
        "encoding": "inplace",
        "label": "struct EVMTransaction.RequestBody",
        "members": [
          {
            "astId": 1457,
            "contract": "contracts/ETFLock.sol:ETFLock",
            "label": "transactionHash",
            "offset": 0,
            "slot": "0",
            "type": "t_bytes32"
          },
          {
            "astId": 1459,
            "contract": "contracts/ETFLock.sol:ETFLock",
            "label": "requiredConfirmations",
            "offset": 0,
            "slot": "1",
            "type": "t_uint16"
          },
          {
            "astId": 1461,
            "contract": "contracts/ETFLock.sol:ETFLock",
            "label": "provideInput",
            "offset": 2,
            "slot": "1",
            "type": "t_bool"
          },
          {
            "astId": 1463,
            "contract": "contracts/ETFLock.sol:ETFLock",
            "label": "listEvents",
            "offset": 3,
            "slot": "1",
            "type": "t_bool"
          },
          {
            "astId": 1466,
            "contract": "contracts/ETFLock.sol:ETFLock",
            "label": "logIndices",
            "offset": 0,
            "slot": "2",
            "type": "t_array(t_uint32)dyn_storage"
          }
        ],
        "numberOfBytes": "96"
      },
      "t_struct(Response)1448_storage": {
        "encoding": "inplace",
        "label": "struct EVMTransaction.Response",
        "members": [
          {
            "astId": 1435,
            "contract": "contracts/ETFLock.sol:ETFLock",
            "label": "attestationType",
            "offset": 0,
            "slot": "0",
            "type": "t_bytes32"
          },
          {
            "astId": 1437,
            "contract": "contracts/ETFLock.sol:ETFLock",
            "label": "sourceId",
            "offset": 0,
            "slot": "1",
            "type": "t_bytes32"
          },
          {
            "astId": 1439,
            "contract": "contracts/ETFLock.sol:ETFLock",
            "label": "votingRound",
            "offset": 0,
            "slot": "2",
            "type": "t_uint64"
          },
          {
            "astId": 1441,
            "contract": "contracts/ETFLock.sol:ETFLock",
            "label": "lowestUsedTimestamp",
            "offset": 8,
            "slot": "2",
            "type": "t_uint64"
          },
          {
            "astId": 1444,
            "contract": "contracts/ETFLock.sol:ETFLock",
            "label": "requestBody",
            "offset": 0,
            "slot": "3",
            "type": "t_struct(RequestBody)1467_storage"
          },
          {
            "astId": 1447,
            "contract": "contracts/ETFLock.sol:ETFLock",
            "label": "responseBody",
            "offset": 0,
            "slot": "6",
            "type": "t_struct(ResponseBody)1488_storage"
          }
        ],
        "numberOfBytes": "416"
      },
      "t_struct(ResponseBody)1488_storage": {
        "encoding": "inplace",
        "label": "struct EVMTransaction.ResponseBody",
        "members": [
          {
            "astId": 1469,
            "contract": "contracts/ETFLock.sol:ETFLock",
            "label": "blockNumber",
            "offset": 0,
            "slot": "0",
            "type": "t_uint64"
          },
          {
            "astId": 1471,
            "contract": "contracts/ETFLock.sol:ETFLock",
            "label": "timestamp",
            "offset": 8,
            "slot": "0",
            "type": "t_uint64"
          },
          {
            "astId": 1473,
            "contract": "contracts/ETFLock.sol:ETFLock",
            "label": "sourceAddress",
            "offset": 0,
            "slot": "1",
            "type": "t_address"
          },
          {
            "astId": 1475,
            "contract": "contracts/ETFLock.sol:ETFLock",
            "label": "isDeployment",
            "offset": 20,
            "slot": "1",
            "type": "t_bool"
          },
          {
            "astId": 1477,
            "contract": "contracts/ETFLock.sol:ETFLock",
            "label": "receivingAddress",
            "offset": 0,
            "slot": "2",
            "type": "t_address"
          },
          {
            "astId": 1479,
            "contract": "contracts/ETFLock.sol:ETFLock",
            "label": "value",
            "offset": 0,
            "slot": "3",
            "type": "t_uint256"
          },
          {
            "astId": 1481,
            "contract": "contracts/ETFLock.sol:ETFLock",
            "label": "input",
            "offset": 0,
            "slot": "4",
            "type": "t_bytes_storage"
          },
          {
            "astId": 1483,
            "contract": "contracts/ETFLock.sol:ETFLock",
            "label": "status",
            "offset": 0,
            "slot": "5",
            "type": "t_uint8"
          },
          {
            "astId": 1487,
            "contract": "contracts/ETFLock.sol:ETFLock",
            "label": "events",
            "offset": 0,
            "slot": "6",
            "type": "t_array(t_struct(Event)1500_storage)dyn_storage"
          }
        ],
        "numberOfBytes": "224"
      },
      "t_struct(Token)9984_storage": {
        "encoding": "inplace",
        "label": "struct Token",
        "members": [
          {
            "astId": 9977,
            "contract": "contracts/ETFLock.sol:ETFLock",
            "label": "_address",
            "offset": 0,
            "slot": "0",
            "type": "t_address"
          },
          {
            "astId": 9979,
            "contract": "contracts/ETFLock.sol:ETFLock",
            "label": "_quantity",
            "offset": 0,
            "slot": "1",
            "type": "t_uint256"
          },
          {
            "astId": 9981,
            "contract": "contracts/ETFLock.sol:ETFLock",
            "label": "_chainId",
            "offset": 0,
            "slot": "2",
            "type": "t_uint256"
          },
          {
            "astId": 9983,
            "contract": "contracts/ETFLock.sol:ETFLock",
            "label": "_contributor",
            "offset": 0,
            "slot": "3",
            "type": "t_address"
          }
        ],
        "numberOfBytes": "128"
      },
      "t_struct(TransactionInfo)10045_storage": {
        "encoding": "inplace",
        "label": "struct ETFLock.TransactionInfo",
        "members": [
          {
            "astId": 10038,
            "contract": "contracts/ETFLock.sol:ETFLock",
            "label": "originalTransaction",
            "offset": 0,
            "slot": "0",
            "type": "t_struct(Proof)1455_storage"
          },
          {
            "astId": 10040,
            "contract": "contracts/ETFLock.sol:ETFLock",
            "label": "eventNumber",
            "offset": 0,
            "slot": "14",
            "type": "t_uint256"
          },
          {
            "astId": 10044,
            "contract": "contracts/ETFLock.sol:ETFLock",
            "label": "eventInfo",
            "offset": 0,
            "slot": "15",
            "type": "t_array(t_struct(EventInfo)10006_storage)dyn_storage"
          }
        ],
        "numberOfBytes": "512"
      },
      "t_struct(Vault)9992_storage": {
        "encoding": "inplace",
        "label": "struct Vault",
        "members": [
          {
            "astId": 9988,
            "contract": "contracts/ETFLock.sol:ETFLock",
            "label": "_tokens",
            "offset": 0,
            "slot": "0",
            "type": "t_array(t_struct(Token)9984_storage)dyn_storage"
          },
          {
            "astId": 9991,
            "contract": "contracts/ETFLock.sol:ETFLock",
            "label": "state",
            "offset": 0,
            "slot": "1",
            "type": "t_enum(VaultState)9997"
          }
        ],
        "numberOfBytes": "64"
      },
      "t_uint16": {
        "encoding": "inplace",
        "label": "uint16",
        "numberOfBytes": "2"
      },
      "t_uint256": {
        "encoding": "inplace",
        "label": "uint256",
        "numberOfBytes": "32"
      },
      "t_uint32": {
        "encoding": "inplace",
        "label": "uint32",
        "numberOfBytes": "4"
      },
      "t_uint64": {
        "encoding": "inplace",
        "label": "uint64",
        "numberOfBytes": "8"
      },
      "t_uint8": {
        "encoding": "inplace",
        "label": "uint8",
        "numberOfBytes": "1"
      }
    }
  }
}