{
  "address": "0x1d8177b9dF133B72c198c9CF184FB4265CCFb986",
  "abi": [
    {
      "inputs": [
        {
          "internalType": "string",
          "name": "name",
          "type": "string"
        },
        {
          "internalType": "string",
          "name": "symbol",
          "type": "string"
        }
      ],
      "stateMutability": "nonpayable",
      "type": "constructor"
    },
    {
      "inputs": [],
      "name": "OwnableUnauthorized",
      "type": "error"
    },
    {
      "anonymous": false,
      "inputs": [
        {
          "indexed": true,
          "internalType": "address",
          "name": "owner",
          "type": "address"
        },
        {
          "indexed": true,
          "internalType": "address",
          "name": "spender",
          "type": "address"
        },
        {
          "indexed": false,
          "internalType": "uint256",
          "name": "value",
          "type": "uint256"
        }
      ],
      "name": "Approval",
      "type": "event"
    },
    {
      "anonymous": false,
      "inputs": [
        {
          "indexed": true,
          "internalType": "address",
          "name": "prevOwner",
          "type": "address"
        },
        {
          "indexed": true,
          "internalType": "address",
          "name": "newOwner",
          "type": "address"
        }
      ],
      "name": "OwnerUpdated",
      "type": "event"
    },
    {
      "anonymous": false,
      "inputs": [
        {
          "indexed": true,
          "internalType": "address",
          "name": "from",
          "type": "address"
        },
        {
          "indexed": true,
          "internalType": "address",
          "name": "to",
          "type": "address"
        },
        {
          "indexed": false,
          "internalType": "uint256",
          "name": "value",
          "type": "uint256"
        }
      ],
      "name": "Transfer",
      "type": "event"
    },
    {
      "inputs": [
        {
          "internalType": "address",
          "name": "owner",
          "type": "address"
        },
        {
          "internalType": "address",
          "name": "spender",
          "type": "address"
        }
      ],
      "name": "allowance",
      "outputs": [
        {
          "internalType": "uint256",
          "name": "",
          "type": "uint256"
        }
      ],
      "stateMutability": "view",
      "type": "function"
    },
    {
      "inputs": [
        {
          "internalType": "address",
          "name": "spender",
          "type": "address"
        },
        {
          "internalType": "uint256",
          "name": "amount",
          "type": "uint256"
        }
      ],
      "name": "approve",
      "outputs": [
        {
          "internalType": "bool",
          "name": "",
          "type": "bool"
        }
      ],
      "stateMutability": "nonpayable",
      "type": "function"
    },
    {
      "inputs": [
        {
          "internalType": "address",
          "name": "account",
          "type": "address"
        }
      ],
      "name": "balanceOf",
      "outputs": [
        {
          "internalType": "uint256",
          "name": "",
          "type": "uint256"
        }
      ],
      "stateMutability": "view",
      "type": "function"
    },
    {
      "inputs": [
        {
          "internalType": "address",
          "name": "account",
          "type": "address"
        },
        {
          "internalType": "uint256",
          "name": "amount",
          "type": "uint256"
        }
      ],
      "name": "burn",
      "outputs": [],
      "stateMutability": "nonpayable",
      "type": "function"
    },
    {
      "inputs": [],
      "name": "decimals",
      "outputs": [
        {
          "internalType": "uint8",
          "name": "",
          "type": "uint8"
        }
      ],
      "stateMutability": "view",
      "type": "function"
    },
    {
      "inputs": [
        {
          "internalType": "address",
          "name": "spender",
          "type": "address"
        },
        {
          "internalType": "uint256",
          "name": "subtractedValue",
          "type": "uint256"
        }
      ],
      "name": "decreaseAllowance",
      "outputs": [
        {
          "internalType": "bool",
          "name": "",
          "type": "bool"
        }
      ],
      "stateMutability": "nonpayable",
      "type": "function"
    },
    {
      "inputs": [
        {
          "internalType": "address",
          "name": "spender",
          "type": "address"
        },
        {
          "internalType": "uint256",
          "name": "addedValue",
          "type": "uint256"
        }
      ],
      "name": "increaseAllowance",
      "outputs": [
        {
          "internalType": "bool",
          "name": "",
          "type": "bool"
        }
      ],
      "stateMutability": "nonpayable",
      "type": "function"
    },
    {
      "inputs": [
        {
          "internalType": "address",
          "name": "account",
          "type": "address"
        },
        {
          "internalType": "uint256",
          "name": "amount",
          "type": "uint256"
        }
      ],
      "name": "mint",
      "outputs": [],
      "stateMutability": "nonpayable",
      "type": "function"
    },
    {
      "inputs": [],
      "name": "name",
      "outputs": [
        {
          "internalType": "string",
          "name": "",
          "type": "string"
        }
      ],
      "stateMutability": "view",
      "type": "function"
    },
    {
      "inputs": [],
      "name": "owner",
      "outputs": [
        {
          "internalType": "address",
          "name": "",
          "type": "address"
        }
      ],
      "stateMutability": "view",
      "type": "function"
    },
    {
      "inputs": [
        {
          "internalType": "address",
          "name": "_newOwner",
          "type": "address"
        }
      ],
      "name": "setOwner",
      "outputs": [],
      "stateMutability": "nonpayable",
      "type": "function"
    },
    {
      "inputs": [],
      "name": "symbol",
      "outputs": [
        {
          "internalType": "string",
          "name": "",
          "type": "string"
        }
      ],
      "stateMutability": "view",
      "type": "function"
    },
    {
      "inputs": [],
      "name": "totalSupply",
      "outputs": [
        {
          "internalType": "uint256",
          "name": "",
          "type": "uint256"
        }
      ],
      "stateMutability": "view",
      "type": "function"
    },
    {
      "inputs": [
        {
          "internalType": "address",
          "name": "to",
          "type": "address"
        },
        {
          "internalType": "uint256",
          "name": "amount",
          "type": "uint256"
        }
      ],
      "name": "transfer",
      "outputs": [
        {
          "internalType": "bool",
          "name": "",
          "type": "bool"
        }
      ],
      "stateMutability": "nonpayable",
      "type": "function"
    },
    {
      "inputs": [
        {
          "internalType": "address",
          "name": "from",
          "type": "address"
        },
        {
          "internalType": "address",
          "name": "to",
          "type": "address"
        },
        {
          "internalType": "uint256",
          "name": "amount",
          "type": "uint256"
        }
      ],
      "name": "transferFrom",
      "outputs": [
        {
          "internalType": "bool",
          "name": "",
          "type": "bool"
        }
      ],
      "stateMutability": "nonpayable",
      "type": "function"
    }
  ],
  "transactionHash": "0x8c88e823ce1d07e7b183234617dd087240b87b913b1e0fd01b23912bf91f2541",
  "args": [
    "ETFToken",
    "ETF"
  ],
  "numDeployments": 30,
  "solcInputHash": "e9528dde203dc4759d3be5531d2b4c3b",
  "bytecode": "0x60806040523480156200001157600080fd5b5060405162000ff438038062000ff4833981016040819052620000349162000186565b818160036200004483826200027f565b5060046200005382826200027f565b50505062000067336200006f60201b60201c565b50506200034b565b600580546001600160a01b038381166001600160a01b0319831681179093556040519116919082907f8292fce18fa69edf4db7b94ea2e58241df0ae57f97e0a6c9b29067028bf92d7690600090a35050565b634e487b7160e01b600052604160045260246000fd5b600082601f830112620000e957600080fd5b81516001600160401b0380821115620001065762000106620000c1565b604051601f8301601f19908116603f01168101908282118183101715620001315762000131620000c1565b816040528381526020925086838588010111156200014e57600080fd5b600091505b8382101562000172578582018301518183018401529082019062000153565b600093810190920192909252949350505050565b600080604083850312156200019a57600080fd5b82516001600160401b0380821115620001b257600080fd5b620001c086838701620000d7565b93506020850151915080821115620001d757600080fd5b50620001e685828601620000d7565b9150509250929050565b600181811c908216806200020557607f821691505b6020821081036200022657634e487b7160e01b600052602260045260246000fd5b50919050565b601f8211156200027a57600081815260208120601f850160051c81016020861015620002555750805b601f850160051c820191505b81811015620002765782815560010162000261565b5050505b505050565b81516001600160401b038111156200029b576200029b620000c1565b620002b381620002ac8454620001f0565b846200022c565b602080601f831160018114620002eb5760008415620002d25750858301515b600019600386901b1c1916600185901b17855562000276565b600085815260208120601f198616915b828110156200031c57888601518255948401946001909101908401620002fb565b50858210156200033b5787850151600019600388901b60f8161c191681555b5050505050600190811b01905550565b610c99806200035b6000396000f3fe608060405234801561001057600080fd5b50600436106100f55760003560e01c806340c10f19116100975780639dc29fac116100665780639dc29fac146101f6578063a457c2d714610209578063a9059cbb1461021c578063dd62ed3e1461022f57600080fd5b806340c10f191461019757806370a08231146101aa5780638da5cb5b146101d357806395d89b41146101ee57600080fd5b806318160ddd116100d357806318160ddd1461015057806323b872dd14610162578063313ce56714610175578063395093511461018457600080fd5b806306fdde03146100fa578063095ea7b31461011857806313af40351461013b575b600080fd5b610102610268565b60405161010f9190610ac8565b60405180910390f35b61012b610126366004610b32565b6102fa565b604051901515815260200161010f565b61014e610149366004610b5c565b610314565b005b6002545b60405190815260200161010f565b61012b610170366004610b7e565b610345565b6040516012815260200161010f565b61012b610192366004610b32565b610369565b61014e6101a5366004610b32565b6103a8565b6101546101b8366004610b5c565b6001600160a01b031660009081526020819052604090205490565b6005546040516001600160a01b03909116815260200161010f565b6101026103b6565b61014e610204366004610b32565b6103c5565b61012b610217366004610b32565b6103fa565b61012b61022a366004610b32565b610491565b61015461023d366004610bba565b6001600160a01b03918216600090815260016020908152604080832093909416825291909152205490565b60606003805461027790610bed565b80601f01602080910402602001604051908101604052809291908181526020018280546102a390610bed565b80156102f05780601f106102c5576101008083540402835291602001916102f0565b820191906000526020600020905b8154815290600101906020018083116102d357829003601f168201915b5050505050905090565b60003361030881858561049f565b60019150505b92915050565b61031c6105c4565b610339576040516316ccb9cb60e11b815260040160405180910390fd5b610342816105f1565b50565b600033610353858285610643565b61035e8585856106d5565b506001949350505050565b3360008181526001602090815260408083206001600160a01b038716845290915281205490919061030890829086906103a3908790610c3d565b61049f565b6103b282826108a3565b5050565b60606004805461027790610bed565b6005546001600160a01b031633146103f0576040516316ccb9cb60e11b815260040160405180910390fd5b6103b28282610982565b3360008181526001602090815260408083206001600160a01b0387168452909152812054909190838110156104845760405162461bcd60e51b815260206004820152602560248201527f45524332303a2064656372656173656420616c6c6f77616e63652062656c6f77604482015264207a65726f60d81b60648201526084015b60405180910390fd5b61035e828686840361049f565b6000336103088185856106d5565b6001600160a01b0383166105015760405162461bcd60e51b8152602060048201526024808201527f45524332303a20617070726f76652066726f6d20746865207a65726f206164646044820152637265737360e01b606482015260840161047b565b6001600160a01b0382166105625760405162461bcd60e51b815260206004820152602260248201527f45524332303a20617070726f766520746f20746865207a65726f206164647265604482015261737360f01b606482015260840161047b565b6001600160a01b0383811660008181526001602090815260408083209487168084529482529182902085905590518481527f8c5be1e5ebec7d5bd14f71427d1e84f3dd0314c0f7b2291e5b200ac8c7c3b92591015b60405180910390a3505050565b60006105d86005546001600160a01b031690565b6001600160a01b0316336001600160a01b031614905090565b600580546001600160a01b038381166001600160a01b0319831681179093556040519116919082907f8292fce18fa69edf4db7b94ea2e58241df0ae57f97e0a6c9b29067028bf92d7690600090a35050565b6001600160a01b0383811660009081526001602090815260408083209386168352929052205460001981146106cf57818110156106c25760405162461bcd60e51b815260206004820152601d60248201527f45524332303a20696e73756666696369656e7420616c6c6f77616e6365000000604482015260640161047b565b6106cf848484840361049f565b50505050565b6001600160a01b0383166107395760405162461bcd60e51b815260206004820152602560248201527f45524332303a207472616e736665722066726f6d20746865207a65726f206164604482015264647265737360d81b606482015260840161047b565b6001600160a01b03821661079b5760405162461bcd60e51b815260206004820152602360248201527f45524332303a207472616e7366657220746f20746865207a65726f206164647260448201526265737360e81b606482015260840161047b565b6001600160a01b038316600090815260208190526040902054818110156108135760405162461bcd60e51b815260206004820152602660248201527f45524332303a207472616e7366657220616d6f756e7420657863656564732062604482015265616c616e636560d01b606482015260840161047b565b6001600160a01b0380851660009081526020819052604080822085850390559185168152908120805484929061084a908490610c3d565b92505081905550826001600160a01b0316846001600160a01b03167fddf252ad1be2c89b69c2b068fc378daa952ba7f163c4a11628f55a4df523b3ef8460405161089691815260200190565b60405180910390a36106cf565b6001600160a01b0382166108f95760405162461bcd60e51b815260206004820152601f60248201527f45524332303a206d696e7420746f20746865207a65726f206164647265737300604482015260640161047b565b806002600082825461090b9190610c3d565b90915550506001600160a01b03821660009081526020819052604081208054839290610938908490610c3d565b90915550506040518181526001600160a01b038316906000907fddf252ad1be2c89b69c2b068fc378daa952ba7f163c4a11628f55a4df523b3ef9060200160405180910390a35050565b6001600160a01b0382166109e25760405162461bcd60e51b815260206004820152602160248201527f45524332303a206275726e2066726f6d20746865207a65726f206164647265736044820152607360f81b606482015260840161047b565b6001600160a01b03821660009081526020819052604090205481811015610a565760405162461bcd60e51b815260206004820152602260248201527f45524332303a206275726e20616d6f756e7420657863656564732062616c616e604482015261636560f01b606482015260840161047b565b6001600160a01b0383166000908152602081905260408120838303905560028054849290610a85908490610c50565b90915550506040518281526000906001600160a01b038516907fddf252ad1be2c89b69c2b068fc378daa952ba7f163c4a11628f55a4df523b3ef906020016105b7565b600060208083528351808285015260005b81811015610af557858101830151858201604001528201610ad9565b506000604082860101526040601f19601f8301168501019250505092915050565b80356001600160a01b0381168114610b2d57600080fd5b919050565b60008060408385031215610b4557600080fd5b610b4e83610b16565b946020939093013593505050565b600060208284031215610b6e57600080fd5b610b7782610b16565b9392505050565b600080600060608486031215610b9357600080fd5b610b9c84610b16565b9250610baa60208501610b16565b9150604084013590509250925092565b60008060408385031215610bcd57600080fd5b610bd683610b16565b9150610be460208401610b16565b90509250929050565b600181811c90821680610c0157607f821691505b602082108103610c2157634e487b7160e01b600052602260045260246000fd5b50919050565b634e487b7160e01b600052601160045260246000fd5b8082018082111561030e5761030e610c27565b8181038181111561030e5761030e610c2756fea2646970667358221220391abb39b6664d60d4ef8c5b5c1e03c8363f07e3baef90a9030d277275a1fcc464736f6c63430008110033",
  "devdoc": {
    "errors": {
      "OwnableUnauthorized()": [
        {
          "details": "The sender is not authorized to perform the action"
        }
      ]
    },
    "kind": "dev",
    "methods": {
      "allowance(address,address)": {
        "details": "See {IERC20-allowance}."
      },
      "approve(address,uint256)": {
        "details": "See {IERC20-approve}. NOTE: If `amount` is the maximum `uint256`, the allowance is not updated on `transferFrom`. This is semantically equivalent to an infinite approval. Requirements: - `spender` cannot be the zero address."
      },
      "balanceOf(address)": {
        "details": "See {IERC20-balanceOf}."
      },
      "decimals()": {
        "details": "Returns the number of decimals used to get its user representation. For example, if `decimals` equals `2`, a balance of `505` tokens should be displayed to a user as `5.05` (`505 / 10 ** 2`). Tokens usually opt for a value of 18, imitating the relationship between Ether and Wei. This is the value {ERC20} uses, unless this function is overridden; NOTE: This information is only used for _display_ purposes: it in no way affects any of the arithmetic of the contract, including {IERC20-balanceOf} and {IERC20-transfer}."
      },
      "decreaseAllowance(address,uint256)": {
        "details": "Atomically decreases the allowance granted to `spender` by the caller. This is an alternative to {approve} that can be used as a mitigation for problems described in {IERC20-approve}. Emits an {Approval} event indicating the updated allowance. Requirements: - `spender` cannot be the zero address. - `spender` must have allowance for the caller of at least `subtractedValue`."
      },
      "increaseAllowance(address,uint256)": {
        "details": "Atomically increases the allowance granted to `spender` by the caller. This is an alternative to {approve} that can be used as a mitigation for problems described in {IERC20-approve}. Emits an {Approval} event indicating the updated allowance. Requirements: - `spender` cannot be the zero address."
      },
      "mint(address,uint256)": {
        "details": "Function to mint new ETF tokens. Only the owner can mint.",
        "params": {
          "account": "The address that will receive the minted tokens.",
          "amount": "The amount of tokens to mint."
        }
      },
      "name()": {
        "details": "Returns the name of the token."
      },
      "setOwner(address)": {
        "params": {
          "_newOwner": "The address to set as the new owner of the contract."
        }
      },
      "symbol()": {
        "details": "Returns the symbol of the token, usually a shorter version of the name."
      },
      "totalSupply()": {
        "details": "See {IERC20-totalSupply}."
      },
      "transfer(address,uint256)": {
        "details": "See {IERC20-transfer}. Requirements: - `to` cannot be the zero address. - the caller must have a balance of at least `amount`."
      },
      "transferFrom(address,address,uint256)": {
        "details": "See {IERC20-transferFrom}. Emits an {Approval} event indicating the updated allowance. This is not required by the EIP. See the note at the beginning of {ERC20}. NOTE: Does not update the allowance if the current allowance is the maximum `uint256`. Requirements: - `from` and `to` cannot be the zero address. - `from` must have a balance of at least `amount`. - the caller must have allowance for ``from``'s tokens of at least `amount`."
      }
    },
    "version": 1
  },
  "userdoc": {
    "kind": "user",
    "methods": {
      "owner()": {
        "notice": "Returns the owner of the contract."
      },
      "setOwner(address)": {
        "notice": "Lets an authorized wallet set a new owner for the contract."
      }
    },
    "version": 1
  },
  "storageLayout": {
    "storage": [
      {
        "astId": 694,
        "contract": "contracts/SimpleERC20.sol:SimpleERC20",
        "label": "_balances",
        "offset": 0,
        "slot": "0",
        "type": "t_mapping(t_address,t_uint256)"
      },
      {
        "astId": 700,
        "contract": "contracts/SimpleERC20.sol:SimpleERC20",
        "label": "_allowances",
        "offset": 0,
        "slot": "1",
        "type": "t_mapping(t_address,t_mapping(t_address,t_uint256))"
      },
      {
        "astId": 702,
        "contract": "contracts/SimpleERC20.sol:SimpleERC20",
        "label": "_totalSupply",
        "offset": 0,
        "slot": "2",
        "type": "t_uint256"
      },
      {
        "astId": 704,
        "contract": "contracts/SimpleERC20.sol:SimpleERC20",
        "label": "_name",
        "offset": 0,
        "slot": "3",
        "type": "t_string_storage"
      },
      {
        "astId": 706,
        "contract": "contracts/SimpleERC20.sol:SimpleERC20",
        "label": "_symbol",
        "offset": 0,
        "slot": "4",
        "type": "t_string_storage"
      },
      {
        "astId": 510,
        "contract": "contracts/SimpleERC20.sol:SimpleERC20",
        "label": "_owner",
        "offset": 0,
        "slot": "5",
        "type": "t_address"
      }
    ],
    "types": {
      "t_address": {
        "encoding": "inplace",
        "label": "address",
        "numberOfBytes": "20"
      },
      "t_mapping(t_address,t_mapping(t_address,t_uint256))": {
        "encoding": "mapping",
        "key": "t_address",
        "label": "mapping(address => mapping(address => uint256))",
        "numberOfBytes": "32",
        "value": "t_mapping(t_address,t_uint256)"
      },
      "t_mapping(t_address,t_uint256)": {
        "encoding": "mapping",
        "key": "t_address",
        "label": "mapping(address => uint256)",
        "numberOfBytes": "32",
        "value": "t_uint256"
      },
      "t_string_storage": {
        "encoding": "bytes",
        "label": "string",
        "numberOfBytes": "32"
      },
      "t_uint256": {
        "encoding": "inplace",
        "label": "uint256",
        "numberOfBytes": "32"
      }
    }
  }
}