{
  "address": "0x85325798FF4E6bd40B1766AEa13bFe1e3e586D75",
  "abi": [
    {
      "inputs": [
        {
          "internalType": "address",
          "name": "_ftsoRegistry",
          "type": "address"
        },
        {
          "internalType": "string[]",
          "name": "_symbols",
          "type": "string[]"
        },
        {
          "internalType": "uint256",
          "name": "_chainId",
          "type": "uint256"
        },
        {
          "internalType": "address",
          "name": "_etfToken",
          "type": "address"
        },
        {
          "internalType": "uint256",
          "name": "_etfTokenPerVault",
          "type": "uint256"
        },
        {
          "components": [
            {
              "internalType": "address",
              "name": "_address",
              "type": "address"
            },
            {
              "internalType": "uint256",
              "name": "_quantity",
              "type": "uint256"
            },
            {
              "internalType": "uint256",
              "name": "_chainId",
              "type": "uint256"
            },
            {
              "internalType": "address",
              "name": "_contributor",
              "type": "address"
            }
          ],
          "internalType": "struct Token[]",
          "name": "_requiredTokens",
          "type": "tuple[]"
        }
      ],
      "stateMutability": "nonpayable",
      "type": "constructor"
    },
    {
      "anonymous": false,
      "inputs": [
        {
          "indexed": false,
          "internalType": "uint256",
          "name": "_vaultId",
          "type": "uint256"
        },
        {
          "indexed": false,
          "internalType": "address",
          "name": "_address",
          "type": "address"
        }
      ],
      "name": "Burn",
      "type": "event"
    },
    {
      "inputs": [
        {
          "internalType": "uint256",
          "name": "_vaultId",
          "type": "uint256"
        }
      ],
      "name": "burn",
      "outputs": [],
      "stateMutability": "nonpayable",
      "type": "function"
    },
    {
      "inputs": [],
      "name": "chainId",
      "outputs": [
        {
          "internalType": "uint256",
          "name": "",
          "type": "uint256"
        }
      ],
      "stateMutability": "view",
      "type": "function"
    },
    {
      "inputs": [
        {
          "components": [
            {
              "internalType": "bytes32[]",
              "name": "merkleProof",
              "type": "bytes32[]"
            },
            {
              "components": [
                {
                  "internalType": "bytes32",
                  "name": "attestationType",
                  "type": "bytes32"
                },
                {
                  "internalType": "bytes32",
                  "name": "sourceId",
                  "type": "bytes32"
                },
                {
                  "internalType": "uint64",
                  "name": "votingRound",
                  "type": "uint64"
                },
                {
                  "internalType": "uint64",
                  "name": "lowestUsedTimestamp",
                  "type": "uint64"
                },
                {
                  "components": [
                    {
                      "internalType": "bytes32",
                      "name": "transactionHash",
                      "type": "bytes32"
                    },
                    {
                      "internalType": "uint16",
                      "name": "requiredConfirmations",
                      "type": "uint16"
                    },
                    {
                      "internalType": "bool",
                      "name": "provideInput",
                      "type": "bool"
                    },
                    {
                      "internalType": "bool",
                      "name": "listEvents",
                      "type": "bool"
                    },
                    {
                      "internalType": "uint32[]",
                      "name": "logIndices",
                      "type": "uint32[]"
                    }
                  ],
                  "internalType": "struct EVMTransaction.RequestBody",
                  "name": "requestBody",
                  "type": "tuple"
                },
                {
                  "components": [
                    {
                      "internalType": "uint64",
                      "name": "blockNumber",
                      "type": "uint64"
                    },
                    {
                      "internalType": "uint64",
                      "name": "timestamp",
                      "type": "uint64"
                    },
                    {
                      "internalType": "address",
                      "name": "sourceAddress",
                      "type": "address"
                    },
                    {
                      "internalType": "bool",
                      "name": "isDeployment",
                      "type": "bool"
                    },
                    {
                      "internalType": "address",
                      "name": "receivingAddress",
                      "type": "address"
                    },
                    {
                      "internalType": "uint256",
                      "name": "value",
                      "type": "uint256"
                    },
                    {
                      "internalType": "bytes",
                      "name": "input",
                      "type": "bytes"
                    },
                    {
                      "internalType": "uint8",
                      "name": "status",
                      "type": "uint8"
                    },
                    {
                      "components": [
                        {
                          "internalType": "uint32",
                          "name": "logIndex",
                          "type": "uint32"
                        },
                        {
                          "internalType": "address",
                          "name": "emitterAddress",
                          "type": "address"
                        },
                        {
                          "internalType": "bytes32[]",
                          "name": "topics",
                          "type": "bytes32[]"
                        },
                        {
                          "internalType": "bytes",
                          "name": "data",
                          "type": "bytes"
                        },
                        {
                          "internalType": "bool",
                          "name": "removed",
                          "type": "bool"
                        }
                      ],
                      "internalType": "struct EVMTransaction.Event[]",
                      "name": "events",
                      "type": "tuple[]"
                    }
                  ],
                  "internalType": "struct EVMTransaction.ResponseBody",
                  "name": "responseBody",
                  "type": "tuple"
                }
              ],
              "internalType": "struct EVMTransaction.Response",
              "name": "data",
              "type": "tuple"
            }
          ],
          "internalType": "struct EVMTransaction.Proof",
          "name": "_transaction",
          "type": "tuple"
        }
      ],
      "name": "checkExternalDeposit",
      "outputs": [],
      "stateMutability": "nonpayable",
      "type": "function"
    },
    {
      "inputs": [
        {
          "internalType": "uint256",
          "name": "_vaultId",
          "type": "uint256"
        }
      ],
      "name": "checkVaultCompletion",
      "outputs": [
        {
          "internalType": "bool",
          "name": "",
          "type": "bool"
        }
      ],
      "stateMutability": "view",
      "type": "function"
    },
    {
      "inputs": [
        {
          "internalType": "uint256",
          "name": "",
          "type": "uint256"
        },
        {
          "internalType": "uint256",
          "name": "",
          "type": "uint256"
        }
      ],
      "name": "contributionsAddress",
      "outputs": [
        {
          "internalType": "address",
          "name": "",
          "type": "address"
        }
      ],
      "stateMutability": "view",
      "type": "function"
    },
    {
      "inputs": [
        {
          "internalType": "uint256",
          "name": "",
          "type": "uint256"
        },
        {
          "internalType": "uint256",
          "name": "",
          "type": "uint256"
        }
      ],
      "name": "contributionsAmount",
      "outputs": [
        {
          "internalType": "uint256",
          "name": "",
          "type": "uint256"
        }
      ],
      "stateMutability": "view",
      "type": "function"
    },
    {
      "inputs": [
        {
          "internalType": "uint256",
          "name": "_vaultId",
          "type": "uint256"
        },
        {
          "components": [
            {
              "internalType": "address",
              "name": "_address",
              "type": "address"
            },
            {
              "internalType": "uint256",
              "name": "_quantity",
              "type": "uint256"
            },
            {
              "internalType": "uint256",
              "name": "_chainId",
              "type": "uint256"
            },
            {
              "internalType": "address",
              "name": "_contributor",
              "type": "address"
            }
          ],
          "internalType": "struct Token[]",
          "name": "_tokens",
          "type": "tuple[]"
        }
      ],
      "name": "deposit",
      "outputs": [],
      "stateMutability": "nonpayable",
      "type": "function"
    },
    {
      "inputs": [],
      "name": "etfToken",
      "outputs": [
        {
          "internalType": "address",
          "name": "",
          "type": "address"
        }
      ],
      "stateMutability": "view",
      "type": "function"
    },
    {
      "inputs": [],
      "name": "etfTokenPerVault",
      "outputs": [
        {
          "internalType": "uint256",
          "name": "",
          "type": "uint256"
        }
      ],
      "stateMutability": "view",
      "type": "function"
    },
    {
      "inputs": [],
      "name": "ftsoRegistry",
      "outputs": [
        {
          "internalType": "address",
          "name": "",
          "type": "address"
        }
      ],
      "stateMutability": "view",
      "type": "function"
    },
    {
      "inputs": [
        {
          "internalType": "uint256",
          "name": "_vaultId",
          "type": "uint256"
        }
      ],
      "name": "getVault",
      "outputs": [
        {
          "components": [
            {
              "internalType": "address",
              "name": "_address",
              "type": "address"
            },
            {
              "internalType": "uint256",
              "name": "_quantity",
              "type": "uint256"
            },
            {
              "internalType": "uint256",
              "name": "_chainId",
              "type": "uint256"
            },
            {
              "internalType": "address",
              "name": "_contributor",
              "type": "address"
            }
          ],
          "internalType": "struct Token[]",
          "name": "",
          "type": "tuple[]"
        },
        {
          "internalType": "enum VaultState",
          "name": "",
          "type": "uint8"
        }
      ],
      "stateMutability": "view",
      "type": "function"
    },
    {
      "inputs": [],
      "name": "getVaultStates",
      "outputs": [
        {
          "internalType": "enum VaultState[]",
          "name": "",
          "type": "uint8[]"
        }
      ],
      "stateMutability": "view",
      "type": "function"
    },
    {
      "inputs": [
        {
          "components": [
            {
              "internalType": "bytes32[]",
              "name": "merkleProof",
              "type": "bytes32[]"
            },
            {
              "components": [
                {
                  "internalType": "bytes32",
                  "name": "attestationType",
                  "type": "bytes32"
                },
                {
                  "internalType": "bytes32",
                  "name": "sourceId",
                  "type": "bytes32"
                },
                {
                  "internalType": "uint64",
                  "name": "votingRound",
                  "type": "uint64"
                },
                {
                  "internalType": "uint64",
                  "name": "lowestUsedTimestamp",
                  "type": "uint64"
                },
                {
                  "components": [
                    {
                      "internalType": "bytes32",
                      "name": "transactionHash",
                      "type": "bytes32"
                    },
                    {
                      "internalType": "uint16",
                      "name": "requiredConfirmations",
                      "type": "uint16"
                    },
                    {
                      "internalType": "bool",
                      "name": "provideInput",
                      "type": "bool"
                    },
                    {
                      "internalType": "bool",
                      "name": "listEvents",
                      "type": "bool"
                    },
                    {
                      "internalType": "uint32[]",
                      "name": "logIndices",
                      "type": "uint32[]"
                    }
                  ],
                  "internalType": "struct EVMTransaction.RequestBody",
                  "name": "requestBody",
                  "type": "tuple"
                },
                {
                  "components": [
                    {
                      "internalType": "uint64",
                      "name": "blockNumber",
                      "type": "uint64"
                    },
                    {
                      "internalType": "uint64",
                      "name": "timestamp",
                      "type": "uint64"
                    },
                    {
                      "internalType": "address",
                      "name": "sourceAddress",
                      "type": "address"
                    },
                    {
                      "internalType": "bool",
                      "name": "isDeployment",
                      "type": "bool"
                    },
                    {
                      "internalType": "address",
                      "name": "receivingAddress",
                      "type": "address"
                    },
                    {
                      "internalType": "uint256",
                      "name": "value",
                      "type": "uint256"
                    },
                    {
                      "internalType": "bytes",
                      "name": "input",
                      "type": "bytes"
                    },
                    {
                      "internalType": "uint8",
                      "name": "status",
                      "type": "uint8"
                    },
                    {
                      "components": [
                        {
                          "internalType": "uint32",
                          "name": "logIndex",
                          "type": "uint32"
                        },
                        {
                          "internalType": "address",
                          "name": "emitterAddress",
                          "type": "address"
                        },
                        {
                          "internalType": "bytes32[]",
                          "name": "topics",
                          "type": "bytes32[]"
                        },
                        {
                          "internalType": "bytes",
                          "name": "data",
                          "type": "bytes"
                        },
                        {
                          "internalType": "bool",
                          "name": "removed",
                          "type": "bool"
                        }
                      ],
                      "internalType": "struct EVMTransaction.Event[]",
                      "name": "events",
                      "type": "tuple[]"
                    }
                  ],
                  "internalType": "struct EVMTransaction.ResponseBody",
                  "name": "responseBody",
                  "type": "tuple"
                }
              ],
              "internalType": "struct EVMTransaction.Response",
              "name": "data",
              "type": "tuple"
            }
          ],
          "internalType": "struct EVMTransaction.Proof",
          "name": "transaction",
          "type": "tuple"
        }
      ],
      "name": "isEVMTransactionProofValid",
      "outputs": [
        {
          "internalType": "bool",
          "name": "",
          "type": "bool"
        }
      ],
      "stateMutability": "view",
      "type": "function"
    },
    {
      "inputs": [
        {
          "internalType": "uint256",
          "name": "",
          "type": "uint256"
        }
      ],
      "name": "requiredTokens",
      "outputs": [
        {
          "internalType": "address",
          "name": "_address",
          "type": "address"
        },
        {
          "internalType": "uint256",
          "name": "_quantity",
          "type": "uint256"
        },
        {
          "internalType": "uint256",
          "name": "_chainId",
          "type": "uint256"
        },
        {
          "internalType": "address",
          "name": "_contributor",
          "type": "address"
        }
      ],
      "stateMutability": "view",
      "type": "function"
    },
    {
      "inputs": [
        {
          "internalType": "address",
          "name": "",
          "type": "address"
        }
      ],
      "name": "symbols",
      "outputs": [
        {
          "internalType": "string",
          "name": "",
          "type": "string"
        }
      ],
      "stateMutability": "view",
      "type": "function"
    },
    {
      "inputs": [
        {
          "internalType": "uint256",
          "name": "",
          "type": "uint256"
        }
      ],
      "name": "transactions",
      "outputs": [
        {
          "components": [
            {
              "internalType": "bytes32[]",
              "name": "merkleProof",
              "type": "bytes32[]"
            },
            {
              "components": [
                {
                  "internalType": "bytes32",
                  "name": "attestationType",
                  "type": "bytes32"
                },
                {
                  "internalType": "bytes32",
                  "name": "sourceId",
                  "type": "bytes32"
                },
                {
                  "internalType": "uint64",
                  "name": "votingRound",
                  "type": "uint64"
                },
                {
                  "internalType": "uint64",
                  "name": "lowestUsedTimestamp",
                  "type": "uint64"
                },
                {
                  "components": [
                    {
                      "internalType": "bytes32",
                      "name": "transactionHash",
                      "type": "bytes32"
                    },
                    {
                      "internalType": "uint16",
                      "name": "requiredConfirmations",
                      "type": "uint16"
                    },
                    {
                      "internalType": "bool",
                      "name": "provideInput",
                      "type": "bool"
                    },
                    {
                      "internalType": "bool",
                      "name": "listEvents",
                      "type": "bool"
                    },
                    {
                      "internalType": "uint32[]",
                      "name": "logIndices",
                      "type": "uint32[]"
                    }
                  ],
                  "internalType": "struct EVMTransaction.RequestBody",
                  "name": "requestBody",
                  "type": "tuple"
                },
                {
                  "components": [
                    {
                      "internalType": "uint64",
                      "name": "blockNumber",
                      "type": "uint64"
                    },
                    {
                      "internalType": "uint64",
                      "name": "timestamp",
                      "type": "uint64"
                    },
                    {
                      "internalType": "address",
                      "name": "sourceAddress",
                      "type": "address"
                    },
                    {
                      "internalType": "bool",
                      "name": "isDeployment",
                      "type": "bool"
                    },
                    {
                      "internalType": "address",
                      "name": "receivingAddress",
                      "type": "address"
                    },
                    {
                      "internalType": "uint256",
                      "name": "value",
                      "type": "uint256"
                    },
                    {
                      "internalType": "bytes",
                      "name": "input",
                      "type": "bytes"
                    },
                    {
                      "internalType": "uint8",
                      "name": "status",
                      "type": "uint8"
                    },
                    {
                      "components": [
                        {
                          "internalType": "uint32",
                          "name": "logIndex",
                          "type": "uint32"
                        },
                        {
                          "internalType": "address",
                          "name": "emitterAddress",
                          "type": "address"
                        },
                        {
                          "internalType": "bytes32[]",
                          "name": "topics",
                          "type": "bytes32[]"
                        },
                        {
                          "internalType": "bytes",
                          "name": "data",
                          "type": "bytes"
                        },
                        {
                          "internalType": "bool",
                          "name": "removed",
                          "type": "bool"
                        }
                      ],
                      "internalType": "struct EVMTransaction.Event[]",
                      "name": "events",
                      "type": "tuple[]"
                    }
                  ],
                  "internalType": "struct EVMTransaction.ResponseBody",
                  "name": "responseBody",
                  "type": "tuple"
                }
              ],
              "internalType": "struct EVMTransaction.Response",
              "name": "data",
              "type": "tuple"
            }
          ],
          "internalType": "struct EVMTransaction.Proof",
          "name": "originalTransaction",
          "type": "tuple"
        },
        {
          "internalType": "uint256",
          "name": "eventNumber",
          "type": "uint256"
        }
      ],
      "stateMutability": "view",
      "type": "function"
    },
    {
      "inputs": [
        {
          "internalType": "uint256",
          "name": "",
          "type": "uint256"
        }
      ],
      "name": "vaults",
      "outputs": [
        {
          "internalType": "enum VaultState",
          "name": "state",
          "type": "uint8"
        }
      ],
      "stateMutability": "view",
      "type": "function"
    }
  ],
  "transactionHash": "0x78c04491bb2f9307438d4f7402ab1f4feb3e993e27011f148a1d4c8518985742",
  "args": [
    "0xb973c1ff930f796Afe8fe25e50FFF59e986517Fa",
    [
      "OVR",
      "UNI",
      "PEPE"
    ],
    "16",
    "0x468B16cCaca97DE626Dd741BA14b3C458F0Cb46F",
    "100000000000000000000",
    [
      {
        "_address": "0xFCb7E64A67dFAb710c3064e097B50B1d93898E71",
        "_quantity": "50000000000000000000",
        "_chainId": "31337",
        "_contributor": "0x2a1F5eB3e84e58e6F1e565306298B9dE1273f203"
      },
      {
        "_address": "0x60a0F6a9952061A78E903B98e5452A996FD4233c",
        "_quantity": "100000000000000000000",
        "_chainId": "31337",
        "_contributor": "0x2a1F5eB3e84e58e6F1e565306298B9dE1273f203"
      },
      {
        "_address": "0x95F2C24d6b0d7D17fBF5dE14d4791504A240Ed6d",
        "_quantity": "100000000000000000000",
        "_chainId": "16",
        "_contributor": "0x2a1F5eB3e84e58e6F1e565306298B9dE1273f203"
      }
    ]
  ],
  "numDeployments": 62,
  "solcInputHash": "85e9dd7160691982ee568625a096410e",
  "bytecode": "0x60806040523480156200001157600080fd5b506040516200356b3803806200356b833981016040819052620000349162000307565b600080546001600160a01b038089166001600160a01b03199283161783556002879055600380549187169190921617905560048390555b8151811015620001835760018282815181106200008c576200008c620004bf565b602090810291909101810151825460018082018555600094855293839020825160049092020180546001600160a01b03199081166001600160a01b039384161782559383015194810194909455604082015160028501556060909101516003909301805490921692169190911790558551869082908110620001125762000112620004bf565b602002602001015160086000848481518110620001335762000133620004bf565b6020026020010151600001516001600160a01b03166001600160a01b0316815260200190815260200160002090816200016d919062000564565b50806200017a8162000630565b9150506200006b565b5050505050505062000658565b80516001600160a01b0381168114620001a857600080fd5b919050565b634e487b7160e01b600052604160045260246000fd5b604051608081016001600160401b0381118282101715620001e857620001e8620001ad565b60405290565b604051601f8201601f191681016001600160401b0381118282101715620002195762000219620001ad565b604052919050565b60006001600160401b038211156200023d576200023d620001ad565b5060051b60200190565b600082601f8301126200025957600080fd5b81516020620002726200026c8362000221565b620001ee565b82815260079290921b840181019181810190868411156200029257600080fd5b8286015b84811015620002fc5760808189031215620002b15760008081fd5b620002bb620001c3565b620002c68262000190565b81528185015185820152604080830151908201526060620002e981840162000190565b9082015283529183019160800162000296565b509695505050505050565b60008060008060008060c087890312156200032157600080fd5b6200032c8762000190565b60208801519096506001600160401b038111156200034957600080fd5b8701601f810189136200035b57600080fd5b80516200036c6200026c8262000221565b808282526020820191508b60208460051b86010111156200038c57600080fd5b602084015b60208460051b860101811015620004635780516001600160401b03811115620003b957600080fd5b8d603f8288010112620003cb57600080fd5b858101602001516001600160401b03811115620003ec57620003ec620001ad565b62000401601f8201601f1916602001620001ee565b8181528f604083858b01010111156200041957600080fd5b60005b828110156200044157604081858b01010151602082840101526020810190506200041c565b5060006020838301015280865250505060208301925060208101905062000391565b508098505050505060408701519350620004806060880162000190565b608088015160a089015191945092506001600160401b03811115620004a457600080fd5b620004b289828a0162000247565b9150509295509295509295565b634e487b7160e01b600052603260045260246000fd5b600181811c90821680620004ea57607f821691505b6020821081036200050b57634e487b7160e01b600052602260045260246000fd5b50919050565b601f8211156200055f57600081815260208120601f850160051c810160208610156200053a5750805b601f850160051c820191505b818110156200055b5782815560010162000546565b5050505b505050565b81516001600160401b03811115620005805762000580620001ad565b6200059881620005918454620004d5565b8462000511565b602080601f831160018114620005d05760008415620005b75750858301515b600019600386901b1c1916600185901b1785556200055b565b600085815260208120601f198616915b828110156200060157888601518255948401946001909101908401620005e0565b5085821015620006205787850151600019600388901b60f8161c191681555b5050505050600190811b01905550565b6000600182016200065157634e487b7160e01b600052601160045260246000fd5b5060010190565b612f0380620006686000396000f3fe608060405234801561001057600080fd5b506004361061010b5760003560e01c806379576078116100a25780639a8a0592116100715780639a8a0592146102935780639ace38c21461029c578063ae447d13146102bd578063eb6a9aa0146102d0578063f0907da6146102e357600080fd5b806379576078146101ea5780638c64ea4a146101fd5780639403b63414610230578063956a45a61461025157600080fd5b806338b5f869116100de57806338b5f8691461017757806342966c68146101a257806350695a02146101b75780636efffaf4146101d757600080fd5b806309f5dc91146101105780631a0c4f5b14610138578063250cab3914610159578063309bfe4a14610162575b600080fd5b61012361011e3660046118b6565b6102f6565b60405190151581526020015b60405180910390f35b61014b6101463660046118f7565b610377565b60405190815260200161012f565b61014b60045481565b61016a6103a8565b60405161012f9190611951565b60005461018a906001600160a01b031681565b6040516001600160a01b03909116815260200161012f565b6101b56101b036600461199c565b610450565b005b6101ca6101c53660046119dd565b6106d3565b60405161012f9190611a40565b61018a6101e53660046118f7565b61076d565b6101b56101f83660046118b6565b6107a5565b61022361020b36600461199c565b60056020526000908152604090206001015460ff1681565b60405161012f9190611a53565b61024361023e36600461199c565b610ab6565b60405161012f929190611a61565b61026461025f36600461199c565b610b62565b604080516001600160a01b0395861681526020810194909452830191909152909116606082015260800161012f565b61014b60025481565b6102af6102aa36600461199c565b610ba8565b60405161012f929190611c9e565b6101b56102cb366004611e22565b610fe0565b60035461018a906001600160a01b031681565b6101236102f136600461199c565b610ff1565b6040516358fbe9e160e01b815260009073f37ad1278917c04fb291c75a42e61710964cb57c906358fbe9e19061033090859060040161227f565b602060405180830381865afa15801561034d573d6000803e3d6000fd5b505050506040513d601f19601f8201168201806040525081019061037191906123ef565b92915050565b6007602052816000526040600020818154811061039357600080fd5b90600052602060002001600091509150505481565b60408051605a808252610b6082019092526060916000919060208201610b408036833701905050905060005b605a81101561044a57600081815260056020526040902060010154825160ff909116908390839081106104095761040961240c565b6020026020010190600381111561042257610422611919565b9081600381111561043557610435611919565b9052508061044281612438565b9150506103d4565b50919050565b600260008281526005602052604090206001015460ff16600381111561047857610478611919565b146104c15760405162461bcd60e51b815260206004820152601460248201527315985d5b1d081dd85cc81b9bdd081b5a5b9d195960621b60448201526064015b60405180910390fd5b6000818152600560205260408120600101805460ff191660031790555b60008281526005602052604090205481101561062e5760025460008381526005602052604090208054839081106105175761051761240c565b9060005260206000209060040201600201540361061c57600082815260056020526040902080548290811061054e5761054e61240c565b600091825260208083206004909202909101548483526005909152604090912080546001600160a01b039092169163a9059cbb913391859081106105945761059461240c565b9060005260206000209060040201600101546040518363ffffffff1660e01b81526004016105d79291906001600160a01b03929092168252602082015260400190565b6020604051808303816000875af11580156105f6573d6000803e3d6000fd5b505050506040513d601f19601f8201168201806040525081019061061a91906123ef565b505b8061062681612438565b9150506104de565b5060035460048054604051632770a7eb60e21b8152339281019290925260248201526001600160a01b0390911690639dc29fac90604401600060405180830381600087803b15801561067f57600080fd5b505af1158015610693573d6000803e3d6000fd5b5050604080518481523360208201527ff6554c3a5d28e08c120b5a69c7edbaf52f935bd2596a60b8a18e282cd257cddb935001905060405180910390a150565b600860205260009081526040902080546106ec90612451565b80601f016020809104026020016040519081016040528092919081815260200182805461071890612451565b80156107655780601f1061073a57610100808354040283529160200191610765565b820191906000526020600020905b81548152906001019060200180831161074857829003601f168201915b505050505081565b6006602052816000526040600020818154811061078957600080fd5b6000918252602090912001546001600160a01b03169150829050565b6107ae816102f6565b6107fa5760405162461bcd60e51b815260206004820152601960248201527f496e76616c6964207472616e73616374696f6e2070726f6f660000000000000060448201526064016104b8565b60098054600181018083556000839052909183918390811061081e5761081e61240c565b600091825260209091206010909102016108388282612bec565b5061084890506020830183612561565b6108569060a0810190612712565b61086590610100810190612485565b90506009828154811061087a5761087a61240c565b60009182526020822060109190910201600e01919091556040805160028082526060820190925290816020015b6040805160808101825260008082526020808301829052928201819052606082015282526000199092019101816108a7579050509050600080807f92c4ae82457b93c1cf331ba7edc25c42b279a02ae829e0c61d148a945eabf675815b6109116020890189612561565b61091f9060a0810190612712565b61092e90610100810190612485565b9050811015610aa1578161094560208a018a612561565b6109539060a0810190612712565b61096290610100810190612485565b838181106109725761097261240c565b9050602002810190610984919061258e565b610992906040810190612485565b60008181106109a3576109a361240c565b9050602002013503610a8f576000808080806109c260208e018e612561565b6109d09060a0810190612712565b6109df90610100810190612485565b878181106109ef576109ef61240c565b9050602002810190610a01919061258e565b610a0f906060810190612756565b810190610a1c9190612d89565b945094509450945094506040518060800160405280856001600160a01b03168152602001848152602001838152602001826001600160a01b03168152508b8981518110610a6b57610a6b61240c565b60200260200101819052508780610a8190612438565b929a50949850909650505050505b80610a9981612438565b915050610904565b50610aad838686611138565b50505050505050565b60008181526005602090815260408083206001810154815483518186028101860190945280845260609594929360ff90921692849190869084015b82821015610b53576000848152602090819020604080516080810182526004860290920180546001600160a01b039081168452600180830154858701526002830154938501939093526003909101541660608301529083529092019101610af1565b50505050915091509150915091565b60018181548110610b7257600080fd5b600091825260209091206004909102018054600182015460028301546003909301546001600160a01b0392831694509092911684565b60098181548110610bb857600080fd5b6000918252602091829020604080516010909302909101805460609481028401850183529183018281529094509192849284929091849190840182828015610c1f57602002820191906000526020600020905b815481526020019060010190808311610c0b575b50505091835250506040805160c0810182526001840180548252600285015460208381019190915260038601546001600160401b0380821685870152600160401b90910416606080850191909152845160a0810186526004880180548252600589015461ffff81168386015260ff62010000820481161515848a01526301000000909104161515928201929092526006880180548751818602810186019098528088529784019795969495608080890196939590860193929190830182828015610d3457602002820191906000526020600020906000905b82829054906101000a900463ffffffff1663ffffffff1681526020019060040190602082600301049283019260010382029150808411610cf75790505b50505091909252505050815260408051610120810182526006840180546001600160401b038082168452600160401b9091041660208084019190915260078601546001600160a01b0380821695850195909552600160a01b900460ff161515606084015260088601549093166080830152600985015460a0830152600a8501805493909401939192909160c0840191610dcc90612451565b80601f0160208091040260200160405190810160405280929190818152602001828054610df890612451565b8015610e455780601f10610e1a57610100808354040283529160200191610e45565b820191906000526020600020905b815481529060010190602001808311610e2857829003601f168201915b5050509183525050600582015460ff16602080830191909152600683018054604080518285028101850182528281529401939260009084015b82821015610fca5760008481526020908190206040805160a08101825260048602909201805463ffffffff8116845264010000000090046001600160a01b0316838501526001810180548351818702810187018552818152949592949386019392830182828015610f0e57602002820191906000526020600020905b815481526020019060010190808311610efa575b50505050508152602001600282018054610f2790612451565b80601f0160208091040260200160405190810160405280929190818152602001828054610f5390612451565b8015610fa05780601f10610f7557610100808354040283529160200191610fa0565b820191906000526020600020905b815481529060010190602001808311610f8357829003601f168201915b50505091835250506003919091015460ff1615156020918201529082526001929092019101610e7e565b50505091525050905250905250600e9091015482565b610fed8282600254611138565b5050565b6000805b60015481101561112f576000805b60008581526005602052604090205481101561110c5760008581526005602052604090208054829081106110395761103961240c565b6000918252602090912060049091020154600180546001600160a01b03909216918590811061106a5761106a61240c565b60009182526020909120600490910201546001600160a01b0316036110fa576000858152600560205260409020805460019350829081106110ad576110ad61240c565b906000526020600020906004020160010154600184815481106110d2576110d261240c565b90600052602060002090600402016001015411156110f557506000949350505050565b61110c565b8061110481612438565b915050611003565b508061111c575060009392505050565b508061112781612438565b915050610ff5565b50600192915050565b60005b825181101561172b576002548382815181106111595761115961240c565b6020026020010151604001510361124f5782818151811061117c5761117c61240c565b6020026020010151600001516001600160a01b03166323b872dd8483815181106111a8576111a861240c565b602002602001015160600151308685815181106111c7576111c761240c565b60209081029190910181015101516040516001600160e01b031960e086901b1681526001600160a01b03938416600482015292909116602483015260448201526064016020604051808303816000875af1158015611229573d6000803e3d6000fd5b505050506040513d601f19601f8201168201806040525081019061124d91906123ef565b505b60005b6000858152600560205260409020548110156115055783828151811061127a5761127a61240c565b6020026020010151600001516001600160a01b03166005600087815260200190815260200160002060000182815481106112b6576112b661240c565b60009182526020909120600490910201546001600160a01b031614801561130f575060008581526005602052604090208054849190839081106112fb576112fb61240c565b906000526020600020906004020160020154145b156114f3578382815181106113265761132661240c565b6020026020010151602001516005600087815260200190815260200160002060000182815481106113595761135961240c565b906000526020600020906004020160010160008282546113799190612ddf565b90915550506000805485516001600160a01b039091169063a69afdc69060089084908990889081106113ad576113ad61240c565b6020026020010151600001516001600160a01b03166001600160a01b031681526020019081526020016000206040518263ffffffff1660e01b81526004016113f59190612df2565b606060405180830381865afa158015611412573d6000803e3d6000fd5b505050506040513d601f19601f820116820180604052508101906114369190612e7d565b505090506007600087815260200190815260200160002085848151811061145f5761145f61240c565b6020026020010151602001518261147691906124ce565b81546001810183556000928352602080842090910191909155878252600690526040902085518690859081106114ae576114ae61240c565b6020908102919091018101516060015182546001810184556000938452919092200180546001600160a01b0319166001600160a01b0390921691909117905550611505565b806114fd81612438565b915050611252565b6000858152600560205260409020548103611718576000805485516001600160a01b039091169063a69afdc69060089084908990889081106115495761154961240c565b6020026020010151600001516001600160a01b03166001600160a01b031681526020019081526020016000206040518263ffffffff1660e01b81526004016115919190612df2565b606060405180830381865afa1580156115ae573d6000803e3d6000fd5b505050506040513d601f19601f820116820180604052508101906115d29190612e7d565b50509050600760008781526020019081526020016000208584815181106115fb576115fb61240c565b6020026020010151602001518261161291906124ce565b815460018101835560009283526020808420909101919091558782526006905260409020855186908590811061164a5761164a61240c565b60209081029190910181015160600151825460018101845560009384528284200180546001600160a01b0319166001600160a01b03909216919091179055878252600590526040902085518690859081106116a7576116a761240c565b602090810291909101810151825460018082018555600094855293839020825160049092020180546001600160a01b03199081166001600160a01b03938416178255938301519481019490945560408201516002850155606090910151600390930180549092169216919091179055505b508061172381612438565b91505061113b565b5060008381526005602052604090206001908101805460ff1916909117905561175383610ff1565b156118b1576000838152600560209081526040808320600101805460ff19166002179055600690915281205490805b828110156117d45760008681526007602052604090208054829081106117aa576117aa61240c565b9060005260206000200154826117c09190612ddf565b9150806117cc81612438565b915050611782565b5060005b828110156118ad57600354600087815260076020526040902080546001600160a01b03909216916340c10f199133918691908690811061181a5761181a61240c565b906000526020600020015460045461183291906124ce565b61183c9190612eab565b6040516001600160e01b031960e085901b1681526001600160a01b0390921660048301526024820152604401600060405180830381600087803b15801561188257600080fd5b505af1158015611896573d6000803e3d6000fd5b5050505080806118a590612438565b9150506117d8565b5050505b505050565b6000602082840312156118c857600080fd5b81356001600160401b038111156118de57600080fd5b8201604081850312156118f057600080fd5b9392505050565b6000806040838503121561190a57600080fd5b50508035926020909101359150565b634e487b7160e01b600052602160045260246000fd5b6004811061194d57634e487b7160e01b600052602160045260246000fd5b9052565b6020808252825182820181905260009190848201906040850190845b818110156119905761198083855161192f565b928401929184019160010161196d565b50909695505050505050565b6000602082840312156119ae57600080fd5b5035919050565b6001600160a01b03811681146119ca57600080fd5b50565b80356119d8816119b5565b919050565b6000602082840312156119ef57600080fd5b81356118f0816119b5565b6000815180845260005b81811015611a2057602081850181015186830182015201611a04565b506000602082860101526020601f19601f83011685010191505092915050565b6020815260006118f060208301846119fa565b60208101610371828461192f565b6040808252835182820181905260009190606090818501906020808901865b83811015611ac457815180516001600160a01b0390811687528482015185880152888201518988015290870151168686015260809094019390820190600101611a80565b5050829550611ad58188018961192f565b50505050509392505050565b600081518084526020808501945080840160005b83811015611b1157815187529582019590820190600101611af5565b509495945050505050565b600081518084526020808501808196508360051b8101915082860160005b85811015611bbf5782840389528151805163ffffffff168552858101516001600160a01b03168686015260408082015160a08288018190529190611b8083890182611ae1565b9250505060608083015187830382890152611b9b83826119fa565b60809485015115159890940197909752505098850198935090840190600101611b3a565b5091979650505050505050565b80516001600160401b0316825260006101206020830151611bf860208601826001600160401b03169052565b506040830151611c1360408601826001600160a01b03169052565b506060830151611c27606086018215159052565b506080830151611c4260808601826001600160a01b03169052565b5060a083015160a085015260c08301518160c0860152611c64828601826119fa565b91505060e0830151611c7b60e086018260ff169052565b506101008084015185830382870152611c948382611b1c565b9695505050505050565b6000604080835284518182850152611cb96080850182611ae1565b9050602080870151603f19868403016060870152805183528181015182840152838101516001600160401b03808216868601528060608401511660608601525050608081015160c060808501526101608401815160c086015261ffff848301511660e0860152858201511515610100860152606082015115156101208601526080820151955060a06101408601528091508551808252610180860192508487019650600091505b80821015611d8657865163ffffffff168352958401959184019160019190910190611d60565b505060a0820151945083810360a0850152611da18186611bcc565b9550505085818601525050509392505050565b634e487b7160e01b600052604160045260246000fd5b604051608081016001600160401b0381118282101715611dec57611dec611db4565b60405290565b604051601f8201601f191681016001600160401b0381118282101715611e1a57611e1a611db4565b604052919050565b6000806040808486031215611e3657600080fd5b833592506020808501356001600160401b0380821115611e5557600080fd5b818701915087601f830112611e6957600080fd5b813581811115611e7b57611e7b611db4565b611e89848260051b01611df2565b818152848101925060079190911b830184019089821115611ea957600080fd5b928401925b81841015611f11576080848b031215611ec75760008081fd5b611ecf611dca565b8435611eda816119b5565b815284860135868201528685013587820152606080860135611efb816119b5565b9082015283526080939093019291840191611eae565b8096505050505050509250929050565b6000808335601e19843603018112611f3857600080fd5b83016020810192503590506001600160401b03811115611f5757600080fd5b8060051b3603821315611f6957600080fd5b9250929050565b81835260006001600160fb1b03831115611f8957600080fd5b8260051b80836020870137939093016020019392505050565b6001600160401b03811681146119ca57600080fd5b80356119d881611fa2565b60008235609e19833603018112611fd857600080fd5b90910192915050565b61ffff811681146119ca57600080fd5b80151581146119ca57600080fd5b80356119d881611ff1565b63ffffffff811681146119ca57600080fd5b6000823561011e19833603018112611fd857600080fd5b6000808335601e1984360301811261204a57600080fd5b83016020810192503590506001600160401b0381111561206957600080fd5b803603821315611f6957600080fd5b81835281816020850137506000828201602090810191909152601f909101601f19169091010190565b60ff811681146119ca57600080fd5b80356119d8816120a1565b81835260006020808501808196508560051b810191508460005b87811015611bbf5782840389526120ec8288611fc2565b60a081356120f98161200a565b63ffffffff1686528187013561210e816119b5565b6001600160a01b031686880152604061212983820184611f21565b83838a015261213b848a018284611f70565b9350505050606061214e81840184612033565b888403838a0152612160848284612078565b9350505050608080830135925061217683611ff1565b911515959091019490945297840197908401906001016120d5565b60006101206121b0846121a385611fb7565b6001600160401b03169052565b6121bc60208401611fb7565b6001600160401b031660208501526121d6604084016119cd565b6001600160a01b031660408501526121f060608401611fff565b15156060850152612203608084016119cd565b6001600160a01b0316608085015260a0838101359085015261222860c0840184612033565b8260c087015261223b8387018284612078565b9250505061224b60e084016120b0565b60ff1660e085015261010061226284820185611f21565b868403838801526122748482846120bb565b979650505050505050565b600060208083526122908485611f21565b6040838601526122a4606086018284611f70565b9150508185013560be198636030181126122bd57600080fd5b8581019050601f1985830301604086015280358252828101358383015260408101356122e881611fa2565b6001600160401b03908116604084015260608201359061230782611fa2565b16606083015261231a6080820182611fc2565b60c060808401526101608301813560c08501528482013561233a81611fe1565b61ffff1660e0850152604082013561235181611ff1565b1515610100850152606082013561236781611ff1565b151561012085015261237c6080830183611f21565b60a061014087015291829052909150600061018085015b838210156123c05782356123a68161200a565b63ffffffff16815291860191600191909101908601612393565b6123cd60a086018661201c565b965085810360a08701526123e18188612191565b9a9950505050505050505050565b60006020828403121561240157600080fd5b81516118f081611ff1565b634e487b7160e01b600052603260045260246000fd5b634e487b7160e01b600052601160045260246000fd5b60006001820161244a5761244a612422565b5060010190565b600181811c9082168061246557607f821691505b60208210810361044a57634e487b7160e01b600052602260045260246000fd5b6000808335601e1984360301811261249c57600080fd5b8301803591506001600160401b038211156124b657600080fd5b6020019150600581901b3603821315611f6957600080fd5b808202811582820484141761037157610371612422565b8054600080835581156118b157828152602081208281015b80821015612513578282556001820191506124fd565b5050505050565b600160401b82111561252e5761252e611db4565b8054828255808310156118b1576000828152602081208481019083015b808210156118ad5782825560018201915061254b565b6000823560be1983360301811261257757600080fd5b9190910192915050565b6000813561037181611fa2565b60008235609e1983360301811261257757600080fd5b6000813561037181611ff1565b5b81811015610fed57600081556001016125b2565b600160401b8211156125da576125da611db4565b8054828255808310156118b1578160005260206000206007840160031c8101601c8560021b16801561261d576000198083018054828460200360031b1c16815550505b506125136007840160031c8301826125b1565b600081356103718161200a565b6001600160401b0383111561265457612654611db4565b61265e83826125c6565b60008181526020902082908460031c60005b818110156126c9576000805b60088110156126bc576126ab61269187612630565b63ffffffff600584901b90811b801986169290911b161790565b60209690960195915060010161267c565b5083820155600101612670565b506007198616808703818814612708576000805b82811015612702576126f161269188612630565b6020979097019691506001016126dd565b50848401555b5050505050505050565b6000823561011e1983360301811261257757600080fd5b60008135610371816119b5565b80546001600160a01b0319166001600160a01b0392909216919091179055565b6000808335601e1984360301811261276d57600080fd5b8301803591506001600160401b0382111561278757600080fd5b602001915036819003821315611f6957600080fd5b601f8211156118b157806000526020600020601f840160051c810160208510156127c35750805b612513601f850160051c8301826125b1565b6001600160401b038311156127ec576127ec611db4565b612800836127fa8354612451565b8361279c565b6000601f841160018114612834576000851561281c5750838201355b600019600387901b1c1916600186901b178355612513565b600083815260209020601f19861690835b828110156128655786850135825560209485019460019092019101612845565b50868210156128825760001960f88860031b161c19848701351681555b505060018560011b0183555050505050565b60008135610371816120a1565b81356128ac8161200a565b63ffffffff8116905081548163ffffffff1982161783556020808501356128d2816119b5565b6001600160c01b03199290921690921790821b640100000000600160c01b0316178255600190828201906129096040860186612485565b6001600160401b0381111561292057612920611db4565b61292a818561251a565b6000938452828420935b8181101561294d57823585820155918301918501612934565b5050505050506129606060830183612756565b61296e8183600286016127d5565b5050610fed61297f608084016125a4565b6003830160ff1981541660ff8315151681178255505050565b600160401b8311156129ac576129ac611db4565b805483825580841015612a815760026001600160fe1b0382811683146129d4576129d4612422565b80861686146129e5576129e5612422565b5060008381526020812086831b81019084841b015b80821015612a7c578282556001612a128184016124e5565b848301612a1f8154612451565b8015612a6857601f80821160018114612a3a57878455612a65565b600084815260209020612a5683850160051c82018783016125b1565b50600084815260208120818655555b50505b5050508260038301556004820191506129fa565b505050505b5060008181526020812083915b858110156118ad57612aa9612aa3848761258e565b836128a1565b6020929092019160049190910190600101612a8e565b612ae9612acb83612581565b825467ffffffffffffffff19166001600160401b0391909116178255565b612b20612af860208401612581565b825467ffffffffffffffff60401b191660409190911b67ffffffffffffffff60401b16178255565b60018101612b39612b3360408501612729565b82612736565b612b66612b48606085016125a4565b82805460ff60a01b191691151560a01b60ff60a01b16919091179055565b50612b7f612b7660808401612729565b60028301612736565b60a08201356003820155612b9660c0830183612756565b612ba48183600486016127d5565b5050612bca612bb560e08401612894565b6005830160ff821660ff198254161781555050565b612bd8610100830183612485565b612be6818360068601612998565b50505050565b612bf68283612485565b6001600160401b03811115612c0d57612c0d611db4565b612c17818461251a565b8260005260208060002060005b83811015612c3e5784358282015593820193600101612c24565b505080850135925060be19853603018312612c5857600080fd5b91840180356001850155828101356002850155916003840191506040830135612c8081611fa2565b825467ffffffffffffffff19166001600160401b038216178355506060830135612ca981611fa2565b825467ffffffffffffffff60401b1916604082901b67ffffffffffffffff60401b1617835550612cdc608084018461258e565b80356004860155915081013560058401612cf582611fe1565b80546040840135612d0581611ff1565b62ffffff199190911661ffff84161790151560101b62ff000016178155612d4f612d31606085016125a4565b82805463ff000000191691151560181b63ff00000016919091179055565b5050612d5e6080820182612485565b9150612d6e82826006870161263d565b50506118b1612d8060a0830183612712565b60078401612abf565b600080600080600060a08688031215612da157600080fd5b853594506020860135612db3816119b5565b935060408601359250606086013591506080860135612dd1816119b5565b809150509295509295909350565b8082018082111561037157610371612422565b6000602080835260008454612e0681612451565b80848701526040600180841660008114612e275760018114612e4157612e6f565b60ff1985168984015283151560051b890183019550612e6f565b896000528660002060005b85811015612e675781548b8201860152908301908801612e4c565b8a0184019650505b509398975050505050505050565b600080600060608486031215612e9257600080fd5b8351925060208401519150604084015190509250925092565b600082612ec857634e487b7160e01b600052601260045260246000fd5b50049056fea26469706673582212206f8f5f0660aff801062aa76fd81c9e1a8c6802cb091314633cf24a997fef09ea64736f6c63430008110033",
  "devdoc": {
    "kind": "dev",
    "methods": {},
    "version": 1
  },
  "userdoc": {
    "kind": "user",
    "methods": {},
    "version": 1
  },
  "storageLayout": {
    "storage": [
      {
        "astId": 7203,
        "contract": "contracts/ETF.sol:ETF",
        "label": "ftsoRegistry",
        "offset": 0,
        "slot": "0",
        "type": "t_address"
      },
      {
        "astId": 7207,
        "contract": "contracts/ETF.sol:ETF",
        "label": "requiredTokens",
        "offset": 0,
        "slot": "1",
        "type": "t_array(t_struct(Token)7188_storage)dyn_storage"
      },
      {
        "astId": 7209,
        "contract": "contracts/ETF.sol:ETF",
        "label": "chainId",
        "offset": 0,
        "slot": "2",
        "type": "t_uint256"
      },
      {
        "astId": 7211,
        "contract": "contracts/ETF.sol:ETF",
        "label": "etfToken",
        "offset": 0,
        "slot": "3",
        "type": "t_address"
      },
      {
        "astId": 7213,
        "contract": "contracts/ETF.sol:ETF",
        "label": "etfTokenPerVault",
        "offset": 0,
        "slot": "4",
        "type": "t_uint256"
      },
      {
        "astId": 7218,
        "contract": "contracts/ETF.sol:ETF",
        "label": "vaults",
        "offset": 0,
        "slot": "5",
        "type": "t_mapping(t_uint256,t_struct(Vault)7196_storage)"
      },
      {
        "astId": 7223,
        "contract": "contracts/ETF.sol:ETF",
        "label": "contributionsAddress",
        "offset": 0,
        "slot": "6",
        "type": "t_mapping(t_uint256,t_array(t_address)dyn_storage)"
      },
      {
        "astId": 7228,
        "contract": "contracts/ETF.sol:ETF",
        "label": "contributionsAmount",
        "offset": 0,
        "slot": "7",
        "type": "t_mapping(t_uint256,t_array(t_uint256)dyn_storage)"
      },
      {
        "astId": 7232,
        "contract": "contracts/ETF.sol:ETF",
        "label": "symbols",
        "offset": 0,
        "slot": "8",
        "type": "t_mapping(t_address,t_string_storage)"
      },
      {
        "astId": 7778,
        "contract": "contracts/ETF.sol:ETF",
        "label": "transactions",
        "offset": 0,
        "slot": "9",
        "type": "t_array(t_struct(TransactionInfo)7251_storage)dyn_storage"
      }
    ],
    "types": {
      "t_address": {
        "encoding": "inplace",
        "label": "address",
        "numberOfBytes": "20"
      },
      "t_array(t_address)dyn_storage": {
        "base": "t_address",
        "encoding": "dynamic_array",
        "label": "address[]",
        "numberOfBytes": "32"
      },
      "t_array(t_bytes32)dyn_storage": {
        "base": "t_bytes32",
        "encoding": "dynamic_array",
        "label": "bytes32[]",
        "numberOfBytes": "32"
      },
      "t_array(t_struct(Event)1500_storage)dyn_storage": {
        "base": "t_struct(Event)1500_storage",
        "encoding": "dynamic_array",
        "label": "struct EVMTransaction.Event[]",
        "numberOfBytes": "32"
      },
      "t_array(t_struct(EventInfo)7241_storage)dyn_storage": {
        "base": "t_struct(EventInfo)7241_storage",
        "encoding": "dynamic_array",
        "label": "struct ETF.EventInfo[]",
        "numberOfBytes": "32"
      },
      "t_array(t_struct(Token)7188_storage)dyn_storage": {
        "base": "t_struct(Token)7188_storage",
        "encoding": "dynamic_array",
        "label": "struct Token[]",
        "numberOfBytes": "32"
      },
      "t_array(t_struct(TransactionInfo)7251_storage)dyn_storage": {
        "base": "t_struct(TransactionInfo)7251_storage",
        "encoding": "dynamic_array",
        "label": "struct ETF.TransactionInfo[]",
        "numberOfBytes": "32"
      },
      "t_array(t_uint256)dyn_storage": {
        "base": "t_uint256",
        "encoding": "dynamic_array",
        "label": "uint256[]",
        "numberOfBytes": "32"
      },
      "t_array(t_uint32)dyn_storage": {
        "base": "t_uint32",
        "encoding": "dynamic_array",
        "label": "uint32[]",
        "numberOfBytes": "32"
      },
      "t_bool": {
        "encoding": "inplace",
        "label": "bool",
        "numberOfBytes": "1"
      },
      "t_bytes32": {
        "encoding": "inplace",
        "label": "bytes32",
        "numberOfBytes": "32"
      },
      "t_bytes_storage": {
        "encoding": "bytes",
        "label": "bytes",
        "numberOfBytes": "32"
      },
      "t_enum(VaultState)7201": {
        "encoding": "inplace",
        "label": "enum VaultState",
        "numberOfBytes": "1"
      },
      "t_mapping(t_address,t_string_storage)": {
        "encoding": "mapping",
        "key": "t_address",
        "label": "mapping(address => string)",
        "numberOfBytes": "32",
        "value": "t_string_storage"
      },
      "t_mapping(t_uint256,t_array(t_address)dyn_storage)": {
        "encoding": "mapping",
        "key": "t_uint256",
        "label": "mapping(uint256 => address[])",
        "numberOfBytes": "32",
        "value": "t_array(t_address)dyn_storage"
      },
      "t_mapping(t_uint256,t_array(t_uint256)dyn_storage)": {
        "encoding": "mapping",
        "key": "t_uint256",
        "label": "mapping(uint256 => uint256[])",
        "numberOfBytes": "32",
        "value": "t_array(t_uint256)dyn_storage"
      },
      "t_mapping(t_uint256,t_struct(Vault)7196_storage)": {
        "encoding": "mapping",
        "key": "t_uint256",
        "label": "mapping(uint256 => struct Vault)",
        "numberOfBytes": "32",
        "value": "t_struct(Vault)7196_storage"
      },
      "t_string_storage": {
        "encoding": "bytes",
        "label": "string",
        "numberOfBytes": "32"
      },
      "t_struct(Event)1500_storage": {
        "encoding": "inplace",
        "label": "struct EVMTransaction.Event",
        "members": [
          {
            "astId": 1490,
            "contract": "contracts/ETF.sol:ETF",
            "label": "logIndex",
            "offset": 0,
            "slot": "0",
            "type": "t_uint32"
          },
          {
            "astId": 1492,
            "contract": "contracts/ETF.sol:ETF",
            "label": "emitterAddress",
            "offset": 4,
            "slot": "0",
            "type": "t_address"
          },
          {
            "astId": 1495,
            "contract": "contracts/ETF.sol:ETF",
            "label": "topics",
            "offset": 0,
            "slot": "1",
            "type": "t_array(t_bytes32)dyn_storage"
          },
          {
            "astId": 1497,
            "contract": "contracts/ETF.sol:ETF",
            "label": "data",
            "offset": 0,
            "slot": "2",
            "type": "t_bytes_storage"
          },
          {
            "astId": 1499,
            "contract": "contracts/ETF.sol:ETF",
            "label": "removed",
            "offset": 0,
            "slot": "3",
            "type": "t_bool"
          }
        ],
        "numberOfBytes": "128"
      },
      "t_struct(EventInfo)7241_storage": {
        "encoding": "inplace",
        "label": "struct ETF.EventInfo",
        "members": [
          {
            "astId": 7234,
            "contract": "contracts/ETF.sol:ETF",
            "label": "sender",
            "offset": 0,
            "slot": "0",
            "type": "t_address"
          },
          {
            "astId": 7236,
            "contract": "contracts/ETF.sol:ETF",
            "label": "quantity",
            "offset": 0,
            "slot": "1",
            "type": "t_uint256"
          },
          {
            "astId": 7238,
            "contract": "contracts/ETF.sol:ETF",
            "label": "chainId",
            "offset": 0,
            "slot": "2",
            "type": "t_uint256"
          },
          {
            "astId": 7240,
            "contract": "contracts/ETF.sol:ETF",
            "label": "contributor",
            "offset": 0,
            "slot": "3",
            "type": "t_address"
          }
        ],
        "numberOfBytes": "128"
      },
      "t_struct(Proof)1455_storage": {
        "encoding": "inplace",
        "label": "struct EVMTransaction.Proof",
        "members": [
          {
            "astId": 1451,
            "contract": "contracts/ETF.sol:ETF",
            "label": "merkleProof",
            "offset": 0,
            "slot": "0",
            "type": "t_array(t_bytes32)dyn_storage"
          },
          {
            "astId": 1454,
            "contract": "contracts/ETF.sol:ETF",
            "label": "data",
            "offset": 0,
            "slot": "1",
            "type": "t_struct(Response)1448_storage"
          }
        ],
        "numberOfBytes": "448"
      },
      "t_struct(RequestBody)1467_storage": {
        "encoding": "inplace",
        "label": "struct EVMTransaction.RequestBody",
        "members": [
          {
            "astId": 1457,
            "contract": "contracts/ETF.sol:ETF",
            "label": "transactionHash",
            "offset": 0,
            "slot": "0",
            "type": "t_bytes32"
          },
          {
            "astId": 1459,
            "contract": "contracts/ETF.sol:ETF",
            "label": "requiredConfirmations",
            "offset": 0,
            "slot": "1",
            "type": "t_uint16"
          },
          {
            "astId": 1461,
            "contract": "contracts/ETF.sol:ETF",
            "label": "provideInput",
            "offset": 2,
            "slot": "1",
            "type": "t_bool"
          },
          {
            "astId": 1463,
            "contract": "contracts/ETF.sol:ETF",
            "label": "listEvents",
            "offset": 3,
            "slot": "1",
            "type": "t_bool"
          },
          {
            "astId": 1466,
            "contract": "contracts/ETF.sol:ETF",
            "label": "logIndices",
            "offset": 0,
            "slot": "2",
            "type": "t_array(t_uint32)dyn_storage"
          }
        ],
        "numberOfBytes": "96"
      },
      "t_struct(Response)1448_storage": {
        "encoding": "inplace",
        "label": "struct EVMTransaction.Response",
        "members": [
          {
            "astId": 1435,
            "contract": "contracts/ETF.sol:ETF",
            "label": "attestationType",
            "offset": 0,
            "slot": "0",
            "type": "t_bytes32"
          },
          {
            "astId": 1437,
            "contract": "contracts/ETF.sol:ETF",
            "label": "sourceId",
            "offset": 0,
            "slot": "1",
            "type": "t_bytes32"
          },
          {
            "astId": 1439,
            "contract": "contracts/ETF.sol:ETF",
            "label": "votingRound",
            "offset": 0,
            "slot": "2",
            "type": "t_uint64"
          },
          {
            "astId": 1441,
            "contract": "contracts/ETF.sol:ETF",
            "label": "lowestUsedTimestamp",
            "offset": 8,
            "slot": "2",
            "type": "t_uint64"
          },
          {
            "astId": 1444,
            "contract": "contracts/ETF.sol:ETF",
            "label": "requestBody",
            "offset": 0,
            "slot": "3",
            "type": "t_struct(RequestBody)1467_storage"
          },
          {
            "astId": 1447,
            "contract": "contracts/ETF.sol:ETF",
            "label": "responseBody",
            "offset": 0,
            "slot": "6",
            "type": "t_struct(ResponseBody)1488_storage"
          }
        ],
        "numberOfBytes": "416"
      },
      "t_struct(ResponseBody)1488_storage": {
        "encoding": "inplace",
        "label": "struct EVMTransaction.ResponseBody",
        "members": [
          {
            "astId": 1469,
            "contract": "contracts/ETF.sol:ETF",
            "label": "blockNumber",
            "offset": 0,
            "slot": "0",
            "type": "t_uint64"
          },
          {
            "astId": 1471,
            "contract": "contracts/ETF.sol:ETF",
            "label": "timestamp",
            "offset": 8,
            "slot": "0",
            "type": "t_uint64"
          },
          {
            "astId": 1473,
            "contract": "contracts/ETF.sol:ETF",
            "label": "sourceAddress",
            "offset": 0,
            "slot": "1",
            "type": "t_address"
          },
          {
            "astId": 1475,
            "contract": "contracts/ETF.sol:ETF",
            "label": "isDeployment",
            "offset": 20,
            "slot": "1",
            "type": "t_bool"
          },
          {
            "astId": 1477,
            "contract": "contracts/ETF.sol:ETF",
            "label": "receivingAddress",
            "offset": 0,
            "slot": "2",
            "type": "t_address"
          },
          {
            "astId": 1479,
            "contract": "contracts/ETF.sol:ETF",
            "label": "value",
            "offset": 0,
            "slot": "3",
            "type": "t_uint256"
          },
          {
            "astId": 1481,
            "contract": "contracts/ETF.sol:ETF",
            "label": "input",
            "offset": 0,
            "slot": "4",
            "type": "t_bytes_storage"
          },
          {
            "astId": 1483,
            "contract": "contracts/ETF.sol:ETF",
            "label": "status",
            "offset": 0,
            "slot": "5",
            "type": "t_uint8"
          },
          {
            "astId": 1487,
            "contract": "contracts/ETF.sol:ETF",
            "label": "events",
            "offset": 0,
            "slot": "6",
            "type": "t_array(t_struct(Event)1500_storage)dyn_storage"
          }
        ],
        "numberOfBytes": "224"
      },
      "t_struct(Token)7188_storage": {
        "encoding": "inplace",
        "label": "struct Token",
        "members": [
          {
            "astId": 7181,
            "contract": "contracts/ETF.sol:ETF",
            "label": "_address",
            "offset": 0,
            "slot": "0",
            "type": "t_address"
          },
          {
            "astId": 7183,
            "contract": "contracts/ETF.sol:ETF",
            "label": "_quantity",
            "offset": 0,
            "slot": "1",
            "type": "t_uint256"
          },
          {
            "astId": 7185,
            "contract": "contracts/ETF.sol:ETF",
            "label": "_chainId",
            "offset": 0,
            "slot": "2",
            "type": "t_uint256"
          },
          {
            "astId": 7187,
            "contract": "contracts/ETF.sol:ETF",
            "label": "_contributor",
            "offset": 0,
            "slot": "3",
            "type": "t_address"
          }
        ],
        "numberOfBytes": "128"
      },
      "t_struct(TransactionInfo)7251_storage": {
        "encoding": "inplace",
        "label": "struct ETF.TransactionInfo",
        "members": [
          {
            "astId": 7244,
            "contract": "contracts/ETF.sol:ETF",
            "label": "originalTransaction",
            "offset": 0,
            "slot": "0",
            "type": "t_struct(Proof)1455_storage"
          },
          {
            "astId": 7246,
            "contract": "contracts/ETF.sol:ETF",
            "label": "eventNumber",
            "offset": 0,
            "slot": "14",
            "type": "t_uint256"
          },
          {
            "astId": 7250,
            "contract": "contracts/ETF.sol:ETF",
            "label": "eventInfo",
            "offset": 0,
            "slot": "15",
            "type": "t_array(t_struct(EventInfo)7241_storage)dyn_storage"
          }
        ],
        "numberOfBytes": "512"
      },
      "t_struct(Vault)7196_storage": {
        "encoding": "inplace",
        "label": "struct Vault",
        "members": [
          {
            "astId": 7192,
            "contract": "contracts/ETF.sol:ETF",
            "label": "_tokens",
            "offset": 0,
            "slot": "0",
            "type": "t_array(t_struct(Token)7188_storage)dyn_storage"
          },
          {
            "astId": 7195,
            "contract": "contracts/ETF.sol:ETF",
            "label": "state",
            "offset": 0,
            "slot": "1",
            "type": "t_enum(VaultState)7201"
          }
        ],
        "numberOfBytes": "64"
      },
      "t_uint16": {
        "encoding": "inplace",
        "label": "uint16",
        "numberOfBytes": "2"
      },
      "t_uint256": {
        "encoding": "inplace",
        "label": "uint256",
        "numberOfBytes": "32"
      },
      "t_uint32": {
        "encoding": "inplace",
        "label": "uint32",
        "numberOfBytes": "4"
      },
      "t_uint64": {
        "encoding": "inplace",
        "label": "uint64",
        "numberOfBytes": "8"
      },
      "t_uint8": {
        "encoding": "inplace",
        "label": "uint8",
        "numberOfBytes": "1"
      }
    }
  }
}