{
  "address": "0xb973c1ff930f796Afe8fe25e50FFF59e986517Fa",
  "abi": [
    {
      "inputs": [],
      "stateMutability": "nonpayable",
      "type": "constructor"
    },
    {
      "inputs": [],
      "name": "getAllCurrentPrices",
      "outputs": [
        {
          "components": [
            {
              "internalType": "uint256",
              "name": "ftsoIndex",
              "type": "uint256"
            },
            {
              "internalType": "uint256",
              "name": "price",
              "type": "uint256"
            },
            {
              "internalType": "uint256",
              "name": "decimals",
              "type": "uint256"
            },
            {
              "internalType": "uint256",
              "name": "timestamp",
              "type": "uint256"
            }
          ],
          "internalType": "struct IFtsoRegistry.PriceInfo[]",
          "name": "",
          "type": "tuple[]"
        }
      ],
      "stateMutability": "view",
      "type": "function"
    },
    {
      "inputs": [
        {
          "internalType": "string",
          "name": "_symbol",
          "type": "string"
        }
      ],
      "name": "getCurrentPrice",
      "outputs": [
        {
          "internalType": "uint256",
          "name": "_price",
          "type": "uint256"
        },
        {
          "internalType": "uint256",
          "name": "_timestamp",
          "type": "uint256"
        }
      ],
      "stateMutability": "view",
      "type": "function"
    },
    {
      "inputs": [
        {
          "internalType": "uint256",
          "name": "_ftsoIndex",
          "type": "uint256"
        }
      ],
      "name": "getCurrentPrice",
      "outputs": [
        {
          "internalType": "uint256",
          "name": "_price",
          "type": "uint256"
        },
        {
          "internalType": "uint256",
          "name": "_timestamp",
          "type": "uint256"
        }
      ],
      "stateMutability": "view",
      "type": "function"
    },
    {
      "inputs": [
        {
          "internalType": "uint256",
          "name": "_assetIndex",
          "type": "uint256"
        }
      ],
      "name": "getCurrentPriceWithDecimals",
      "outputs": [
        {
          "internalType": "uint256",
          "name": "_price",
          "type": "uint256"
        },
        {
          "internalType": "uint256",
          "name": "_timestamp",
          "type": "uint256"
        },
        {
          "internalType": "uint256",
          "name": "_assetPriceUsdDecimals",
          "type": "uint256"
        }
      ],
      "stateMutability": "view",
      "type": "function"
    },
    {
      "inputs": [
        {
          "internalType": "string",
          "name": "_symbol",
          "type": "string"
        }
      ],
      "name": "getCurrentPriceWithDecimals",
      "outputs": [
        {
          "internalType": "uint256",
          "name": "_price",
          "type": "uint256"
        },
        {
          "internalType": "uint256",
          "name": "_timestamp",
          "type": "uint256"
        },
        {
          "internalType": "uint256",
          "name": "_decimals",
          "type": "uint256"
        }
      ],
      "stateMutability": "view",
      "type": "function"
    },
    {
      "inputs": [
        {
          "internalType": "uint256[]",
          "name": "_indices",
          "type": "uint256[]"
        }
      ],
      "name": "getCurrentPricesByIndices",
      "outputs": [
        {
          "components": [
            {
              "internalType": "uint256",
              "name": "ftsoIndex",
              "type": "uint256"
            },
            {
              "internalType": "uint256",
              "name": "price",
              "type": "uint256"
            },
            {
              "internalType": "uint256",
              "name": "decimals",
              "type": "uint256"
            },
            {
              "internalType": "uint256",
              "name": "timestamp",
              "type": "uint256"
            }
          ],
          "internalType": "struct IFtsoRegistry.PriceInfo[]",
          "name": "",
          "type": "tuple[]"
        }
      ],
      "stateMutability": "view",
      "type": "function"
    },
    {
      "inputs": [
        {
          "internalType": "string[]",
          "name": "_symbols",
          "type": "string[]"
        }
      ],
      "name": "getCurrentPricesBySymbols",
      "outputs": [
        {
          "components": [
            {
              "internalType": "uint256",
              "name": "ftsoIndex",
              "type": "uint256"
            },
            {
              "internalType": "uint256",
              "name": "price",
              "type": "uint256"
            },
            {
              "internalType": "uint256",
              "name": "decimals",
              "type": "uint256"
            },
            {
              "internalType": "uint256",
              "name": "timestamp",
              "type": "uint256"
            }
          ],
          "internalType": "struct IFtsoRegistry.PriceInfo[]",
          "name": "",
          "type": "tuple[]"
        }
      ],
      "stateMutability": "view",
      "type": "function"
    },
    {
      "inputs": [
        {
          "internalType": "uint256",
          "name": "_ftsoIndex",
          "type": "uint256"
        }
      ],
      "name": "getFtso",
      "outputs": [
        {
          "internalType": "contract IIFtso",
          "name": "_activeFtsoAddress",
          "type": "address"
        }
      ],
      "stateMutability": "view",
      "type": "function"
    },
    {
      "inputs": [
        {
          "internalType": "string",
          "name": "_symbol",
          "type": "string"
        }
      ],
      "name": "getFtsoBySymbol",
      "outputs": [
        {
          "internalType": "contract IIFtso",
          "name": "_activeFtsoAddress",
          "type": "address"
        }
      ],
      "stateMutability": "view",
      "type": "function"
    },
    {
      "inputs": [
        {
          "internalType": "string",
          "name": "_symbol",
          "type": "string"
        }
      ],
      "name": "getFtsoIndex",
      "outputs": [
        {
          "internalType": "uint256",
          "name": "_assetIndex",
          "type": "uint256"
        }
      ],
      "stateMutability": "view",
      "type": "function"
    },
    {
      "inputs": [
        {
          "internalType": "uint256",
          "name": "_ftsoIndex",
          "type": "uint256"
        }
      ],
      "name": "getFtsoSymbol",
      "outputs": [
        {
          "internalType": "string",
          "name": "_symbol",
          "type": "string"
        }
      ],
      "stateMutability": "view",
      "type": "function"
    },
    {
      "inputs": [
        {
          "internalType": "uint256[]",
          "name": "_indices",
          "type": "uint256[]"
        }
      ],
      "name": "getFtsos",
      "outputs": [
        {
          "internalType": "contract IFtsoGenesis[]",
          "name": "_ftsos",
          "type": "address[]"
        }
      ],
      "stateMutability": "view",
      "type": "function"
    },
    {
      "inputs": [],
      "name": "getSupportedFtsos",
      "outputs": [
        {
          "internalType": "contract IIFtso[]",
          "name": "_ftsos",
          "type": "address[]"
        }
      ],
      "stateMutability": "view",
      "type": "function"
    },
    {
      "inputs": [],
      "name": "getSupportedIndices",
      "outputs": [
        {
          "internalType": "uint256[]",
          "name": "_supportedIndices",
          "type": "uint256[]"
        }
      ],
      "stateMutability": "view",
      "type": "function"
    },
    {
      "inputs": [],
      "name": "getSupportedIndicesAndFtsos",
      "outputs": [
        {
          "internalType": "uint256[]",
          "name": "_supportedIndices",
          "type": "uint256[]"
        },
        {
          "internalType": "contract IIFtso[]",
          "name": "_ftsos",
          "type": "address[]"
        }
      ],
      "stateMutability": "view",
      "type": "function"
    },
    {
      "inputs": [],
      "name": "getSupportedIndicesAndSymbols",
      "outputs": [
        {
          "internalType": "uint256[]",
          "name": "_supportedIndices",
          "type": "uint256[]"
        },
        {
          "internalType": "string[]",
          "name": "_supportedSymbols",
          "type": "string[]"
        }
      ],
      "stateMutability": "view",
      "type": "function"
    },
    {
      "inputs": [],
      "name": "getSupportedIndicesSymbolsAndFtsos",
      "outputs": [
        {
          "internalType": "uint256[]",
          "name": "_supportedIndices",
          "type": "uint256[]"
        },
        {
          "internalType": "string[]",
          "name": "_supportedSymbols",
          "type": "string[]"
        },
        {
          "internalType": "contract IIFtso[]",
          "name": "_ftsos",
          "type": "address[]"
        }
      ],
      "stateMutability": "view",
      "type": "function"
    },
    {
      "inputs": [],
      "name": "getSupportedSymbols",
      "outputs": [
        {
          "internalType": "string[]",
          "name": "",
          "type": "string[]"
        }
      ],
      "stateMutability": "view",
      "type": "function"
    },
    {
      "inputs": [],
      "name": "getSupportedSymbolsAndFtsos",
      "outputs": [
        {
          "internalType": "string[]",
          "name": "_supportedSymbols",
          "type": "string[]"
        },
        {
          "internalType": "contract IIFtso[]",
          "name": "_ftsos",
          "type": "address[]"
        }
      ],
      "stateMutability": "view",
      "type": "function"
    },
    {
      "inputs": [
        {
          "internalType": "string",
          "name": "symbol",
          "type": "string"
        },
        {
          "internalType": "uint256",
          "name": "price",
          "type": "uint256"
        }
      ],
      "name": "setPrice",
      "outputs": [],
      "stateMutability": "nonpayable",
      "type": "function"
    },
    {
      "inputs": [
        {
          "internalType": "string[]",
          "name": "_symbols",
          "type": "string[]"
        }
      ],
      "name": "setSupportedSymbols",
      "outputs": [],
      "stateMutability": "nonpayable",
      "type": "function"
    },
    {
      "inputs": [
        {
          "internalType": "uint256",
          "name": "",
          "type": "uint256"
        }
      ],
      "name": "symbols",
      "outputs": [
        {
          "internalType": "string",
          "name": "",
          "type": "string"
        }
      ],
      "stateMutability": "view",
      "type": "function"
    }
  ],
  "transactionHash": "0x17247040807a0ecd8c664eba319f193dce7a4834108ed7de374b821df32a38ab",
  "args": [],
  "numDeployments": 1,
  "solcInputHash": "aaa7e322eb299002b7704bf1322f6241",
  "bytecode": "0x60806040523480156200001157600080fd5b506001805480820182556000919091526040805180820190915260048152635045504560e01b602082015260008051602062000f94833981519152909101906200005c9082620002e9565b5060018054808201825560009190915260408051808201909152600381526227ab2960e91b602082015260008051602062000f9483398151915290910190620000a69082620002e9565b50600180548082018255600091909152604080518082019091526003815262554e4960e81b602082015260008051602062000f9483398151915290910190620000f09082620002e9565b5060408051606081018252620186a081526365e8a3e060208201526005818301529051635045504560e01b81526000906004019081526040519081900360200190206200013f916003620001e2565b506040805160608101825262030d4081526365e8a3e0602082015260058183015290516227ab2960e91b81526000906003019081526040519081900360200190206200018d916003620001e2565b50604080516060810182526207a12081526365e8a3e06020820152600581830152905162554e4960e81b8152600090600301908152604051908190036020019020620001db916003620001e2565b50620003b5565b82600381019282156200021b579160200282015b828111156200021b578251829063ffffffff16905591602001919060010190620001f6565b50620002299291506200022d565b5090565b5b808211156200022957600081556001016200022e565b634e487b7160e01b600052604160045260246000fd5b600181811c908216806200026f57607f821691505b6020821081036200029057634e487b7160e01b600052602260045260246000fd5b50919050565b601f821115620002e457600081815260208120601f850160051c81016020861015620002bf5750805b601f850160051c820191505b81811015620002e057828155600101620002cb565b5050505b505050565b81516001600160401b0381111562000305576200030562000244565b6200031d816200031684546200025a565b8462000296565b602080601f8311600181146200035557600084156200033c5750858301515b600019600386901b1c1916600185901b178555620002e0565b600085815260208120601f198616915b82811015620003865788860151825594840194600190910190840162000365565b5085821015620003a55787850151600019600388901b60f8161c191681555b5050505050600190811b01905550565b610bcf80620003c56000396000f3fe608060405234801561001057600080fd5b50600436106101425760003560e01c806379d5ea4b116100b8578063c55d0f561161007c578063c55d0f56146102cb578063ccce413b146102e1578063ce1c0e4d146102f4578063d75f6d8114610309578063e68f283b14610317578063e848da301461032857600080fd5b806379d5ea4b1461025457806397da6af4146102625780639cb475381461028e578063a40060ba146102a9578063a69afdc6146102b857600080fd5b806334f9e1be1161010a57806334f9e1be146101db57806342a0f243146101ec57806358f9296f146102145780636ba31fa1146102245780637687542c14610232578063798aac5b1461024557600080fd5b806306a2ba29146101475780630cf4849714610161578063136d3f641461017257806322e0119214610193578063257cbd3a146101a8575b600080fd5b606080604051610158929190610631565b60405180910390f35b606080604051610158929190610707565b61018661018036600461071a565b50606090565b6040516101589190610733565b6101a66101a1366004610804565b610344565b005b6101c06101b636600461071a565b5060009081908190565b60408051938452602084019290925290820152606001610158565b6101a66101e936600461086d565b50565b6101ff6101fa366004610923565b61036c565b60408051928352602083019190915201610158565b60605b6040516101589190610960565b6102176101803660046109c4565b6060808060405161015893929190610a55565b60606040516101589190610a98565b61021761018036600461086d565b610276610270366004610923565b50600090565b6040516001600160a01b039091168152602001610158565b61029c6101803660046109c4565b6040516101589190610aab565b60606040516101589190610af8565b6101c06102c6366004610923565b6103be565b6101ff6102d936600461071a565b600080915091565b6101866102ef36600461071a565b610438565b6102fc6104e4565b6040516101589190610b0b565b61027661027036600461071a565b606080604051610158929190610b1e565b610336610270366004610923565b604051908152602001610158565b806000836040516103559190610b43565b908152604051908190036020019020600001555050565b60008060008360405161037f9190610b43565b908152604051908190036020019020600001546000846040516103a29190610b43565b9081526040519081900360200190206001015491509150915091565b600080600080846040516103d29190610b43565b908152604051908190036020019020600001546000856040516103f59190610b43565b908152604051908190036020019020600101546000866040516104189190610b43565b908152604051908190036020019020600201549250925092509193909250565b6001818154811061044857600080fd5b90600052602060002001600091509050805461046390610b5f565b80601f016020809104026020016040519081016040528092919081815260200182805461048f90610b5f565b80156104dc5780601f106104b1576101008083540402835291602001916104dc565b820191906000526020600020905b8154815290600101906020018083116104bf57829003601f168201915b505050505081565b60606001805480602002602001604051908101604052809291908181526020016000905b828210156105b457838290600052602060002001805461052790610b5f565b80601f016020809104026020016040519081016040528092919081815260200182805461055390610b5f565b80156105a05780601f10610575576101008083540402835291602001916105a0565b820191906000526020600020905b81548152906001019060200180831161058357829003601f168201915b505050505081526020019060010190610508565b50505050905090565b600081518084526020808501945080840160005b838110156105ed578151875295820195908201906001016105d1565b509495945050505050565b600081518084526020808501945080840160005b838110156105ed5781516001600160a01b03168752958201959082019060010161060c565b60408152600061064460408301856105bd565b828103602084015261065681856105f8565b95945050505050565b60005b8381101561067a578181015183820152602001610662565b50506000910152565b6000815180845261069b81602086016020860161065f565b601f01601f19169290920160200192915050565b600082825180855260208086019550808260051b84010181860160005b848110156106fa57601f198684030189526106e8838351610683565b988401989250908301906001016106cc565b5090979650505050505050565b60408152600061064460408301856106af565b60006020828403121561072c57600080fd5b5035919050565b6020815260006107466020830184610683565b9392505050565b634e487b7160e01b600052604160045260246000fd5b604051601f8201601f1916810167ffffffffffffffff8111828210171561078c5761078c61074d565b604052919050565b600082601f8301126107a557600080fd5b813567ffffffffffffffff8111156107bf576107bf61074d565b6107d2601f8201601f1916602001610763565b8181528460208386010111156107e757600080fd5b816020850160208301376000918101602001919091529392505050565b6000806040838503121561081757600080fd5b823567ffffffffffffffff81111561082e57600080fd5b61083a85828601610794565b95602094909401359450505050565b600067ffffffffffffffff8211156108635761086361074d565b5060051b60200190565b6000602080838503121561088057600080fd5b823567ffffffffffffffff8082111561089857600080fd5b818501915085601f8301126108ac57600080fd5b81356108bf6108ba82610849565b610763565b81815260059190911b830184019084810190888311156108de57600080fd5b8585015b83811015610916578035858111156108fa5760008081fd5b6109088b89838a0101610794565b8452509186019186016108e2565b5098975050505050505050565b60006020828403121561093557600080fd5b813567ffffffffffffffff81111561094c57600080fd5b61095884828501610794565b949350505050565b602080825282518282018190526000919060409081850190868401855b828110156109b75781518051855286810151878601528581015186860152606090810151908501526080909301929085019060010161097d565b5091979650505050505050565b600060208083850312156109d757600080fd5b823567ffffffffffffffff8111156109ee57600080fd5b8301601f810185136109ff57600080fd5b8035610a0d6108ba82610849565b81815260059190911b82018301908381019087831115610a2c57600080fd5b928401925b82841015610a4a57833582529284019290840190610a31565b979650505050505050565b606081526000610a6860608301866105bd565b8281036020840152610a7a81866106af565b90508281036040840152610a8e81856105f8565b9695505050505050565b60208152600061074660208301846105bd565b6020808252825182820181905260009190848201906040850190845b81811015610aec5783516001600160a01b031683529284019291840191600101610ac7565b50909695505050505050565b60208152600061074660208301846105f8565b60208152600061074660208301846106af565b604081526000610b3160408301856105bd565b828103602084015261065681856106af565b60008251610b5581846020870161065f565b9190910192915050565b600181811c90821680610b7357607f821691505b602082108103610b9357634e487b7160e01b600052602260045260246000fd5b5091905056fea2646970667358221220c6222dca9628fd95e470e97437df608cd5763bb4d428ebf8f073fb7713bfa84064736f6c63430008110033b10e2d527612073b26eecdfd717e6a320cf44b4afac2b0732d9fcbe2b7fa0cf6",
  "devdoc": {
    "kind": "dev",
    "methods": {},
    "version": 1
  },
  "userdoc": {
    "kind": "user",
    "methods": {},
    "version": 1
  },
  "storageLayout": {
    "storage": [
      {
        "astId": 11796,
        "contract": "contracts/MockFtsoRegistry.sol:MockFtsoRegistry",
        "label": "prices",
        "offset": 0,
        "slot": "0",
        "type": "t_mapping(t_string_memory_ptr,t_array(t_uint256)3_storage)"
      },
      {
        "astId": 11799,
        "contract": "contracts/MockFtsoRegistry.sol:MockFtsoRegistry",
        "label": "symbols",
        "offset": 0,
        "slot": "1",
        "type": "t_array(t_string_storage)dyn_storage"
      }
    ],
    "types": {
      "t_array(t_string_storage)dyn_storage": {
        "base": "t_string_storage",
        "encoding": "dynamic_array",
        "label": "string[]",
        "numberOfBytes": "32"
      },
      "t_array(t_uint256)3_storage": {
        "base": "t_uint256",
        "encoding": "inplace",
        "label": "uint256[3]",
        "numberOfBytes": "96"
      },
      "t_mapping(t_string_memory_ptr,t_array(t_uint256)3_storage)": {
        "encoding": "mapping",
        "key": "t_string_memory_ptr",
        "label": "mapping(string => uint256[3])",
        "numberOfBytes": "32",
        "value": "t_array(t_uint256)3_storage"
      },
      "t_string_memory_ptr": {
        "encoding": "bytes",
        "label": "string",
        "numberOfBytes": "32"
      },
      "t_string_storage": {
        "encoding": "bytes",
        "label": "string",
        "numberOfBytes": "32"
      },
      "t_uint256": {
        "encoding": "inplace",
        "label": "uint256",
        "numberOfBytes": "32"
      }
    }
  }
}